{
	"contracts/TokenFaucet.sol": {
		"TokenFaucet": {
			"abi": [
				{
					"inputs": [
						{
							"internalType": "address",
							"name": "_tokenAddress",
							"type": "address"
						}
					],
					"stateMutability": "nonpayable",
					"type": "constructor"
				},
				{
					"anonymous": false,
					"inputs": [
						{
							"indexed": false,
							"internalType": "bool",
							"name": "paused",
							"type": "bool"
						}
					],
					"name": "FaucetPaused",
					"type": "event"
				},
				{
					"anonymous": false,
					"inputs": [
						{
							"indexed": true,
							"internalType": "address",
							"name": "to",
							"type": "address"
						},
						{
							"indexed": false,
							"internalType": "uint256",
							"name": "value",
							"type": "uint256"
						},
						{
							"indexed": false,
							"internalType": "uint256",
							"name": "timestamp",
							"type": "uint256"
						}
					],
					"name": "TokensClaimed",
					"type": "event"
				},
				{
					"inputs": [],
					"name": "COOLDOWN_TIME",
					"outputs": [
						{
							"internalType": "uint256",
							"name": "",
							"type": "uint256"
						}
					],
					"stateMutability": "view",
					"type": "function"
				},
				{
					"inputs": [],
					"name": "FAUCET_AMOUNT",
					"outputs": [
						{
							"internalType": "uint256",
							"name": "",
							"type": "uint256"
						}
					],
					"stateMutability": "view",
					"type": "function"
				},
				{
					"inputs": [],
					"name": "MAX_CLAIM_AMOUNT",
					"outputs": [
						{
							"internalType": "uint256",
							"name": "",
							"type": "uint256"
						}
					],
					"stateMutability": "view",
					"type": "function"
				},
				{
					"inputs": [],
					"name": "admin",
					"outputs": [
						{
							"internalType": "address",
							"name": "",
							"type": "address"
						}
					],
					"stateMutability": "view",
					"type": "function"
				},
				{
					"inputs": [
						{
							"internalType": "address",
							"name": "user",
							"type": "address"
						}
					],
					"name": "canClaim",
					"outputs": [
						{
							"internalType": "bool",
							"name": "",
							"type": "bool"
						}
					],
					"stateMutability": "view",
					"type": "function"
				},
				{
					"inputs": [],
					"name": "isPaused",
					"outputs": [
						{
							"internalType": "bool",
							"name": "",
							"type": "bool"
						}
					],
					"stateMutability": "view",
					"type": "function"
				},
				{
					"inputs": [
						{
							"internalType": "address",
							"name": "",
							"type": "address"
						}
					],
					"name": "lastClaimedAt",
					"outputs": [
						{
							"internalType": "uint256",
							"name": "",
							"type": "uint256"
						}
					],
					"stateMutability": "view",
					"type": "function"
				},
				{
					"inputs": [],
					"name": "paused",
					"outputs": [
						{
							"internalType": "bool",
							"name": "",
							"type": "bool"
						}
					],
					"stateMutability": "view",
					"type": "function"
				},
				{
					"inputs": [
						{
							"internalType": "address",
							"name": "user",
							"type": "address"
						}
					],
					"name": "remainingAllowance",
					"outputs": [
						{
							"internalType": "uint256",
							"name": "",
							"type": "uint256"
						}
					],
					"stateMutability": "view",
					"type": "function"
				},
				{
					"inputs": [],
					"name": "requestTokens",
					"outputs": [],
					"stateMutability": "nonpayable",
					"type": "function"
				},
				{
					"inputs": [
						{
							"internalType": "bool",
							"name": "_paused",
							"type": "bool"
						}
					],
					"name": "setPaused",
					"outputs": [],
					"stateMutability": "nonpayable",
					"type": "function"
				},
				{
					"inputs": [],
					"name": "token",
					"outputs": [
						{
							"internalType": "contract IToken",
							"name": "",
							"type": "address"
						}
					],
					"stateMutability": "view",
					"type": "function"
				},
				{
					"inputs": [
						{
							"internalType": "address",
							"name": "",
							"type": "address"
						}
					],
					"name": "totalClaimed",
					"outputs": [
						{
							"internalType": "uint256",
							"name": "",
							"type": "uint256"
						}
					],
					"stateMutability": "view",
					"type": "function"
				}
			],
			"devdoc": {
				"kind": "dev",
				"methods": {},
				"version": 1
			},
			"evm": {
				"assembly": "    /* \"contracts/TokenFaucet.sol\":94:2110  contract TokenFaucet {... */\n  mstore(0x40, 0x80)\n    /* \"contracts/TokenFaucet.sol\":604:808  constructor(address _tokenAddress) {... */\n  callvalue\n  dup1\n  iszero\n  tag_1\n  jumpi\n  revert(0x00, 0x00)\ntag_1:\n  pop\n  mload(0x40)\n  sub(codesize, bytecodeSize)\n  dup1\n  bytecodeSize\n  dup4\n  codecopy\n  dup2\n  dup2\n  add\n  0x40\n  mstore\n  dup2\n  add\n  swap1\n  tag_2\n  swap2\n  swap1\n  tag_3\n  jump\t// in\ntag_2:\n    /* \"contracts/TokenFaucet.sol\":682:683  0 */\n  0x00\n    /* \"contracts/TokenFaucet.sol\":657:684  _tokenAddress != address(0) */\n  0xffffffffffffffffffffffffffffffffffffffff\n  and\n    /* \"contracts/TokenFaucet.sol\":657:670  _tokenAddress */\n  dup2\n    /* \"contracts/TokenFaucet.sol\":657:684  _tokenAddress != address(0) */\n  0xffffffffffffffffffffffffffffffffffffffff\n  and\n  sub\n    /* \"contracts/TokenFaucet.sol\":649:710  require(_tokenAddress != address(0), \"Invalid token address\") */\n  tag_6\n  jumpi\n  mload(0x40)\n  0x08c379a000000000000000000000000000000000000000000000000000000000\n  dup2\n  mstore\n  0x04\n  add\n  tag_7\n  swap1\n  tag_8\n  jump\t// in\ntag_7:\n  mload(0x40)\n  dup1\n  swap2\n  sub\n  swap1\n  revert\ntag_6:\n    /* \"contracts/TokenFaucet.sol\":728:738  msg.sender */\n  caller\n    /* \"contracts/TokenFaucet.sol\":720:725  admin */\n  0x00\n  0x00\n    /* \"contracts/TokenFaucet.sol\":720:738  admin = msg.sender */\n  0x0100\n  exp\n  dup2\n  sload\n  dup2\n  0xffffffffffffffffffffffffffffffffffffffff\n  mul\n  not\n  and\n  swap1\n  dup4\n  0xffffffffffffffffffffffffffffffffffffffff\n  and\n  mul\n  or\n  swap1\n  sstore\n  pop\n    /* \"contracts/TokenFaucet.sol\":757:762  false */\n  0x00\n    /* \"contracts/TokenFaucet.sol\":748:754  paused */\n  0x01\n  0x14\n    /* \"contracts/TokenFaucet.sol\":748:762  paused = false */\n  0x0100\n  exp\n  dup2\n  sload\n  dup2\n  0xff\n  mul\n  not\n  and\n  swap1\n  dup4\n  iszero\n  iszero\n  mul\n  or\n  swap1\n  sstore\n  pop\n    /* \"contracts/TokenFaucet.sol\":787:800  _tokenAddress */\n  dup1\n    /* \"contracts/TokenFaucet.sol\":772:777  token */\n  0x01\n  0x00\n    /* \"contracts/TokenFaucet.sol\":772:801  token = IToken(_tokenAddress) */\n  0x0100\n  exp\n  dup2\n  sload\n  dup2\n  0xffffffffffffffffffffffffffffffffffffffff\n  mul\n  not\n  and\n  swap1\n  dup4\n  0xffffffffffffffffffffffffffffffffffffffff\n  and\n  mul\n  or\n  swap1\n  sstore\n  pop\n    /* \"contracts/TokenFaucet.sol\":604:808  constructor(address _tokenAddress) {... */\n  pop\n    /* \"contracts/TokenFaucet.sol\":94:2110  contract TokenFaucet {... */\n  jump(tag_9)\n    /* \"#utility.yul\":88:205   */\ntag_11:\n    /* \"#utility.yul\":197:198   */\n  0x00\n    /* \"#utility.yul\":194:195   */\n  0x00\n    /* \"#utility.yul\":187:199   */\n  revert\n    /* \"#utility.yul\":334:460   */\ntag_13:\n    /* \"#utility.yul\":371:378   */\n  0x00\n    /* \"#utility.yul\":411:453   */\n  0xffffffffffffffffffffffffffffffffffffffff\n    /* \"#utility.yul\":404:409   */\n  dup3\n    /* \"#utility.yul\":400:454   */\n  and\n    /* \"#utility.yul\":389:454   */\n  swap1\n  pop\n    /* \"#utility.yul\":334:460   */\n  swap2\n  swap1\n  pop\n  jump\t// out\n    /* \"#utility.yul\":466:562   */\ntag_14:\n    /* \"#utility.yul\":503:510   */\n  0x00\n    /* \"#utility.yul\":532:556   */\n  tag_26\n    /* \"#utility.yul\":550:555   */\n  dup3\n    /* \"#utility.yul\":532:556   */\n  tag_13\n  jump\t// in\ntag_26:\n    /* \"#utility.yul\":521:556   */\n  swap1\n  pop\n    /* \"#utility.yul\":466:562   */\n  swap2\n  swap1\n  pop\n  jump\t// out\n    /* \"#utility.yul\":568:690   */\ntag_15:\n    /* \"#utility.yul\":641:665   */\n  tag_28\n    /* \"#utility.yul\":659:664   */\n  dup2\n    /* \"#utility.yul\":641:665   */\n  tag_14\n  jump\t// in\ntag_28:\n    /* \"#utility.yul\":634:639   */\n  dup2\n    /* \"#utility.yul\":631:666   */\n  eq\n    /* \"#utility.yul\":621:684   */\n  tag_29\n  jumpi\n    /* \"#utility.yul\":680:681   */\n  0x00\n    /* \"#utility.yul\":677:678   */\n  0x00\n    /* \"#utility.yul\":670:682   */\n  revert\n    /* \"#utility.yul\":621:684   */\ntag_29:\n    /* \"#utility.yul\":568:690   */\n  pop\n  jump\t// out\n    /* \"#utility.yul\":696:839   */\ntag_16:\n    /* \"#utility.yul\":753:758   */\n  0x00\n    /* \"#utility.yul\":784:790   */\n  dup2\n    /* \"#utility.yul\":778:791   */\n  mload\n    /* \"#utility.yul\":769:791   */\n  swap1\n  pop\n    /* \"#utility.yul\":800:833   */\n  tag_31\n    /* \"#utility.yul\":827:832   */\n  dup2\n    /* \"#utility.yul\":800:833   */\n  tag_15\n  jump\t// in\ntag_31:\n    /* \"#utility.yul\":696:839   */\n  swap3\n  swap2\n  pop\n  pop\n  jump\t// out\n    /* \"#utility.yul\":845:1196   */\ntag_3:\n    /* \"#utility.yul\":915:921   */\n  0x00\n    /* \"#utility.yul\":964:966   */\n  0x20\n    /* \"#utility.yul\":952:961   */\n  dup3\n    /* \"#utility.yul\":943:950   */\n  dup5\n    /* \"#utility.yul\":939:962   */\n  sub\n    /* \"#utility.yul\":935:967   */\n  slt\n    /* \"#utility.yul\":932:1051   */\n  iszero\n  tag_33\n  jumpi\n    /* \"#utility.yul\":970:1049   */\n  tag_34\n  tag_11\n  jump\t// in\ntag_34:\n    /* \"#utility.yul\":932:1051   */\ntag_33:\n    /* \"#utility.yul\":1090:1091   */\n  0x00\n    /* \"#utility.yul\":1115:1179   */\n  tag_35\n    /* \"#utility.yul\":1171:1178   */\n  dup5\n    /* \"#utility.yul\":1162:1168   */\n  dup3\n    /* \"#utility.yul\":1151:1160   */\n  dup6\n    /* \"#utility.yul\":1147:1169   */\n  add\n    /* \"#utility.yul\":1115:1179   */\n  tag_16\n  jump\t// in\ntag_35:\n    /* \"#utility.yul\":1105:1179   */\n  swap2\n  pop\n    /* \"#utility.yul\":1061:1189   */\n  pop\n    /* \"#utility.yul\":845:1196   */\n  swap3\n  swap2\n  pop\n  pop\n  jump\t// out\n    /* \"#utility.yul\":1202:1371   */\ntag_17:\n    /* \"#utility.yul\":1286:1297   */\n  0x00\n    /* \"#utility.yul\":1320:1326   */\n  dup3\n    /* \"#utility.yul\":1315:1318   */\n  dup3\n    /* \"#utility.yul\":1308:1327   */\n  mstore\n    /* \"#utility.yul\":1360:1364   */\n  0x20\n    /* \"#utility.yul\":1355:1358   */\n  dup3\n    /* \"#utility.yul\":1351:1365   */\n  add\n    /* \"#utility.yul\":1336:1365   */\n  swap1\n  pop\n    /* \"#utility.yul\":1202:1371   */\n  swap3\n  swap2\n  pop\n  pop\n  jump\t// out\n    /* \"#utility.yul\":1377:1548   */\ntag_18:\n    /* \"#utility.yul\":1517:1540   */\n  0x496e76616c696420746f6b656e20616464726573730000000000000000000000\n    /* \"#utility.yul\":1513:1514   */\n  0x00\n    /* \"#utility.yul\":1505:1511   */\n  dup3\n    /* \"#utility.yul\":1501:1515   */\n  add\n    /* \"#utility.yul\":1494:1541   */\n  mstore\n    /* \"#utility.yul\":1377:1548   */\n  pop\n  jump\t// out\n    /* \"#utility.yul\":1554:1920   */\ntag_19:\n    /* \"#utility.yul\":1696:1699   */\n  0x00\n    /* \"#utility.yul\":1717:1784   */\n  tag_39\n    /* \"#utility.yul\":1781:1783   */\n  0x15\n    /* \"#utility.yul\":1776:1779   */\n  dup4\n    /* \"#utility.yul\":1717:1784   */\n  tag_17\n  jump\t// in\ntag_39:\n    /* \"#utility.yul\":1710:1784   */\n  swap2\n  pop\n    /* \"#utility.yul\":1793:1886   */\n  tag_40\n    /* \"#utility.yul\":1882:1885   */\n  dup3\n    /* \"#utility.yul\":1793:1886   */\n  tag_18\n  jump\t// in\ntag_40:\n    /* \"#utility.yul\":1911:1913   */\n  0x20\n    /* \"#utility.yul\":1906:1909   */\n  dup3\n    /* \"#utility.yul\":1902:1914   */\n  add\n    /* \"#utility.yul\":1895:1914   */\n  swap1\n  pop\n    /* \"#utility.yul\":1554:1920   */\n  swap2\n  swap1\n  pop\n  jump\t// out\n    /* \"#utility.yul\":1926:2345   */\ntag_8:\n    /* \"#utility.yul\":2092:2096   */\n  0x00\n    /* \"#utility.yul\":2130:2132   */\n  0x20\n    /* \"#utility.yul\":2119:2128   */\n  dup3\n    /* \"#utility.yul\":2115:2133   */\n  add\n    /* \"#utility.yul\":2107:2133   */\n  swap1\n  pop\n    /* \"#utility.yul\":2179:2188   */\n  dup2\n    /* \"#utility.yul\":2173:2177   */\n  dup2\n    /* \"#utility.yul\":2169:2189   */\n  sub\n    /* \"#utility.yul\":2165:2166   */\n  0x00\n    /* \"#utility.yul\":2154:2163   */\n  dup4\n    /* \"#utility.yul\":2150:2167   */\n  add\n    /* \"#utility.yul\":2143:2190   */\n  mstore\n    /* \"#utility.yul\":2207:2338   */\n  tag_42\n    /* \"#utility.yul\":2333:2337   */\n  dup2\n    /* \"#utility.yul\":2207:2338   */\n  tag_19\n  jump\t// in\ntag_42:\n    /* \"#utility.yul\":2199:2338   */\n  swap1\n  pop\n    /* \"#utility.yul\":1926:2345   */\n  swap2\n  swap1\n  pop\n  jump\t// out\n    /* \"contracts/TokenFaucet.sol\":94:2110  contract TokenFaucet {... */\ntag_9:\n  dataSize(sub_0)\n  dup1\n  dataOffset(sub_0)\n  0x00\n  codecopy\n  0x00\n  return\nstop\n\nsub_0: assembly {\n        /* \"contracts/TokenFaucet.sol\":94:2110  contract TokenFaucet {... */\n      mstore(0x40, 0x80)\n      callvalue\n      dup1\n      iszero\n      tag_1\n      jumpi\n      revert(0x00, 0x00)\n    tag_1:\n      pop\n      jumpi(tag_2, lt(calldatasize, 0x04))\n      shr(0xe0, calldataload(0x00))\n      dup1\n      0xb187bd26\n      gt\n      tag_16\n      jumpi\n      dup1\n      0xef5d9ae8\n      gt\n      tag_17\n      jumpi\n      dup1\n      0xef5d9ae8\n      eq\n      tag_12\n      jumpi\n      dup1\n      0xf357df6d\n      eq\n      tag_13\n      jumpi\n      dup1\n      0xf851a440\n      eq\n      tag_14\n      jumpi\n      dup1\n      0xfc0c546a\n      eq\n      tag_15\n      jumpi\n      jump(tag_2)\n    tag_17:\n      dup1\n      0xb187bd26\n      eq\n      tag_9\n      jumpi\n      dup1\n      0xbf3506c1\n      eq\n      tag_10\n      jumpi\n      dup1\n      0xe362b4f7\n      eq\n      tag_11\n      jumpi\n      jump(tag_2)\n    tag_16:\n      dup1\n      0x16c38b3c\n      eq\n      tag_3\n      jumpi\n      dup1\n      0x26a40c99\n      eq\n      tag_4\n      jumpi\n      dup1\n      0x359cf2b7\n      eq\n      tag_5\n      jumpi\n      dup1\n      0x5c975abb\n      eq\n      tag_6\n      jumpi\n      dup1\n      0x76697640\n      eq\n      tag_7\n      jumpi\n      dup1\n      0x7d263245\n      eq\n      tag_8\n      jumpi\n    tag_2:\n      revert(0x00, 0x00)\n        /* \"contracts/TokenFaucet.sol\":1850:2025  function setPaused(bool _paused) public {... */\n    tag_3:\n      tag_18\n      0x04\n      dup1\n      calldatasize\n      sub\n      dup2\n      add\n      swap1\n      tag_19\n      swap2\n      swap1\n      tag_20\n      jump\t// in\n    tag_19:\n      tag_21\n      jump\t// in\n    tag_18:\n      stop\n        /* \"contracts/TokenFaucet.sol\":366:414  mapping(address => uint256) public lastClaimedAt */\n    tag_4:\n      tag_22\n      0x04\n      dup1\n      calldatasize\n      sub\n      dup2\n      add\n      swap1\n      tag_23\n      swap2\n      swap1\n      tag_24\n      jump\t// in\n    tag_23:\n      tag_25\n      jump\t// in\n    tag_22:\n      mload(0x40)\n      tag_26\n      swap2\n      swap1\n      tag_27\n      jump\t// in\n    tag_26:\n      mload(0x40)\n      dup1\n      swap2\n      sub\n      swap1\n      return\n        /* \"contracts/TokenFaucet.sol\":814:1416  function requestTokens() public {... */\n    tag_5:\n      tag_28\n      tag_29\n      jump\t// in\n    tag_28:\n      stop\n        /* \"contracts/TokenFaucet.sol\":342:360  bool public paused */\n    tag_6:\n      tag_30\n      tag_31\n      jump\t// in\n    tag_30:\n      mload(0x40)\n      tag_32\n      swap2\n      swap1\n      tag_33\n      jump\t// in\n    tag_32:\n      mload(0x40)\n      dup1\n      swap2\n      sub\n      swap1\n      return\n        /* \"contracts/TokenFaucet.sol\":121:169  uint256 public constant FAUCET_AMOUNT = 10 ** 18 */\n    tag_7:\n      tag_34\n      tag_35\n      jump\t// in\n    tag_34:\n      mload(0x40)\n      tag_36\n      swap2\n      swap1\n      tag_27\n      jump\t// in\n    tag_36:\n      mload(0x40)\n      dup1\n      swap2\n      sub\n      swap1\n      return\n        /* \"contracts/TokenFaucet.sol\":175:220  uint256 public constant COOLDOWN_TIME = 86400 */\n    tag_8:\n      tag_37\n      tag_38\n      jump\t// in\n    tag_37:\n      mload(0x40)\n      tag_39\n      swap2\n      swap1\n      tag_27\n      jump\t// in\n    tag_39:\n      mload(0x40)\n      dup1\n      swap2\n      sub\n      swap1\n      return\n        /* \"contracts/TokenFaucet.sol\":2031:2108  function isPaused() public view returns (bool) {... */\n    tag_9:\n      tag_40\n      tag_41\n      jump\t// in\n    tag_40:\n      mload(0x40)\n      tag_42\n      swap2\n      swap1\n      tag_33\n      jump\t// in\n    tag_42:\n      mload(0x40)\n      dup1\n      swap2\n      sub\n      swap1\n      return\n        /* \"contracts/TokenFaucet.sol\":1422:1705  function canClaim(address user) public view returns (bool) {... */\n    tag_10:\n      tag_43\n      0x04\n      dup1\n      calldatasize\n      sub\n      dup2\n      add\n      swap1\n      tag_44\n      swap2\n      swap1\n      tag_24\n      jump\t// in\n    tag_44:\n      tag_45\n      jump\t// in\n    tag_43:\n      mload(0x40)\n      tag_46\n      swap2\n      swap1\n      tag_33\n      jump\t// in\n    tag_46:\n      mload(0x40)\n      dup1\n      swap2\n      sub\n      swap1\n      return\n        /* \"contracts/TokenFaucet.sol\":226:285  uint256 public constant MAX_CLAIM_AMOUNT = 100 * (10 ** 18) */\n    tag_11:\n      tag_47\n      tag_48\n      jump\t// in\n    tag_47:\n      mload(0x40)\n      tag_49\n      swap2\n      swap1\n      tag_27\n      jump\t// in\n    tag_49:\n      mload(0x40)\n      dup1\n      swap2\n      sub\n      swap1\n      return\n        /* \"contracts/TokenFaucet.sol\":420:467  mapping(address => uint256) public totalClaimed */\n    tag_12:\n      tag_50\n      0x04\n      dup1\n      calldatasize\n      sub\n      dup2\n      add\n      swap1\n      tag_51\n      swap2\n      swap1\n      tag_24\n      jump\t// in\n    tag_51:\n      tag_52\n      jump\t// in\n    tag_50:\n      mload(0x40)\n      tag_53\n      swap2\n      swap1\n      tag_27\n      jump\t// in\n    tag_53:\n      mload(0x40)\n      dup1\n      swap2\n      sub\n      swap1\n      return\n        /* \"contracts/TokenFaucet.sol\":1711:1844  function remainingAllowance(address user) public view returns (uint256) {... */\n    tag_13:\n      tag_54\n      0x04\n      dup1\n      calldatasize\n      sub\n      dup2\n      add\n      swap1\n      tag_55\n      swap2\n      swap1\n      tag_24\n      jump\t// in\n    tag_55:\n      tag_56\n      jump\t// in\n    tag_54:\n      mload(0x40)\n      tag_57\n      swap2\n      swap1\n      tag_27\n      jump\t// in\n    tag_57:\n      mload(0x40)\n      dup1\n      swap2\n      sub\n      swap1\n      return\n        /* \"contracts/TokenFaucet.sol\":291:311  address public admin */\n    tag_14:\n      tag_58\n      tag_59\n      jump\t// in\n    tag_58:\n      mload(0x40)\n      tag_60\n      swap2\n      swap1\n      tag_61\n      jump\t// in\n    tag_60:\n      mload(0x40)\n      dup1\n      swap2\n      sub\n      swap1\n      return\n        /* \"contracts/TokenFaucet.sol\":317:336  IToken public token */\n    tag_15:\n      tag_62\n      tag_63\n      jump\t// in\n    tag_62:\n      mload(0x40)\n      tag_64\n      swap2\n      swap1\n      tag_65\n      jump\t// in\n    tag_64:\n      mload(0x40)\n      dup1\n      swap2\n      sub\n      swap1\n      return\n        /* \"contracts/TokenFaucet.sol\":1850:2025  function setPaused(bool _paused) public {... */\n    tag_21:\n        /* \"contracts/TokenFaucet.sol\":1922:1927  admin */\n      0x00\n      0x00\n      swap1\n      sload\n      swap1\n      0x0100\n      exp\n      swap1\n      div\n      0xffffffffffffffffffffffffffffffffffffffff\n      and\n        /* \"contracts/TokenFaucet.sol\":1908:1927  msg.sender == admin */\n      0xffffffffffffffffffffffffffffffffffffffff\n      and\n        /* \"contracts/TokenFaucet.sol\":1908:1918  msg.sender */\n      caller\n        /* \"contracts/TokenFaucet.sol\":1908:1927  msg.sender == admin */\n      0xffffffffffffffffffffffffffffffffffffffff\n      and\n      eq\n        /* \"contracts/TokenFaucet.sol\":1900:1956  require(msg.sender == admin, \"Only autharized by Admin\") */\n      tag_67\n      jumpi\n      mload(0x40)\n      0x08c379a000000000000000000000000000000000000000000000000000000000\n      dup2\n      mstore\n      0x04\n      add\n      tag_68\n      swap1\n      tag_69\n      jump\t// in\n    tag_68:\n      mload(0x40)\n      dup1\n      swap2\n      sub\n      swap1\n      revert\n    tag_67:\n        /* \"contracts/TokenFaucet.sol\":1975:1982  _paused */\n      dup1\n        /* \"contracts/TokenFaucet.sol\":1966:1972  paused */\n      0x01\n      0x14\n        /* \"contracts/TokenFaucet.sol\":1966:1982  paused = _paused */\n      0x0100\n      exp\n      dup2\n      sload\n      dup2\n      0xff\n      mul\n      not\n      and\n      swap1\n      dup4\n      iszero\n      iszero\n      mul\n      or\n      swap1\n      sstore\n      pop\n        /* \"contracts/TokenFaucet.sol\":1997:2018  FaucetPaused(_paused) */\n      0x50cfd8deb0b293676ae69355a9eed053a00f81d3bd6a0ae4dc082629e6476f7f\n        /* \"contracts/TokenFaucet.sol\":2010:2017  _paused */\n      dup2\n        /* \"contracts/TokenFaucet.sol\":1997:2018  FaucetPaused(_paused) */\n      mload(0x40)\n      tag_70\n      swap2\n      swap1\n      tag_33\n      jump\t// in\n    tag_70:\n      mload(0x40)\n      dup1\n      swap2\n      sub\n      swap1\n      log1\n        /* \"contracts/TokenFaucet.sol\":1850:2025  function setPaused(bool _paused) public {... */\n      pop\n      jump\t// out\n        /* \"contracts/TokenFaucet.sol\":366:414  mapping(address => uint256) public lastClaimedAt */\n    tag_25:\n      mstore(0x20, 0x02)\n      dup1\n      0x00\n      mstore\n      keccak256(0x00, 0x40)\n      0x00\n      swap2\n      pop\n      swap1\n      pop\n      sload\n      dup2\n      jump\t// out\n        /* \"contracts/TokenFaucet.sol\":814:1416  function requestTokens() public {... */\n    tag_29:\n        /* \"contracts/TokenFaucet.sol\":865:871  paused */\n      0x01\n      0x14\n      swap1\n      sload\n      swap1\n      0x0100\n      exp\n      swap1\n      div\n      0xff\n      and\n        /* \"contracts/TokenFaucet.sol\":864:871  !paused */\n      iszero\n        /* \"contracts/TokenFaucet.sol\":856:892  require(!paused, \"Faucet is paused\") */\n      tag_72\n      jumpi\n      mload(0x40)\n      0x08c379a000000000000000000000000000000000000000000000000000000000\n      dup2\n      mstore\n      0x04\n      add\n      tag_73\n      swap1\n      tag_74\n      jump\t// in\n    tag_73:\n      mload(0x40)\n      dup1\n      swap2\n      sub\n      swap1\n      revert\n    tag_72:\n        /* \"contracts/TokenFaucet.sol\":215:220  86400 */\n      0x015180\n        /* \"contracts/TokenFaucet.sol\":943:956  lastClaimedAt */\n      0x02\n        /* \"contracts/TokenFaucet.sol\":943:968  lastClaimedAt[msg.sender] */\n      0x00\n        /* \"contracts/TokenFaucet.sol\":957:967  msg.sender */\n      caller\n        /* \"contracts/TokenFaucet.sol\":943:968  lastClaimedAt[msg.sender] */\n      0xffffffffffffffffffffffffffffffffffffffff\n      and\n      0xffffffffffffffffffffffffffffffffffffffff\n      and\n      dup2\n      mstore\n      0x20\n      add\n      swap1\n      dup2\n      mstore\n      0x20\n      add\n      0x00\n      keccak256\n      sload\n        /* \"contracts/TokenFaucet.sol\":943:984  lastClaimedAt[msg.sender] + COOLDOWN_TIME */\n      tag_75\n      swap2\n      swap1\n      tag_76\n      jump\t// in\n    tag_75:\n        /* \"contracts/TokenFaucet.sol\":924:939  block.timestamp */\n      timestamp\n        /* \"contracts/TokenFaucet.sol\":924:984  block.timestamp >= lastClaimedAt[msg.sender] + COOLDOWN_TIME */\n      lt\n      iszero\n        /* \"contracts/TokenFaucet.sol\":903:1037  require(... */\n      tag_77\n      jumpi\n      mload(0x40)\n      0x08c379a000000000000000000000000000000000000000000000000000000000\n      dup2\n      mstore\n      0x04\n      add\n      tag_78\n      swap1\n      tag_79\n      jump\t// in\n    tag_78:\n      mload(0x40)\n      dup1\n      swap2\n      sub\n      swap1\n      revert\n    tag_77:\n        /* \"contracts/TokenFaucet.sol\":269:285  100 * (10 ** 18) */\n      0x056bc75e2d63100000\n        /* \"contracts/TokenFaucet.sol\":161:169  10 ** 18 */\n      0x0de0b6b3a7640000\n        /* \"contracts/TokenFaucet.sol\":1069:1081  totalClaimed */\n      0x03\n        /* \"contracts/TokenFaucet.sol\":1069:1093  totalClaimed[msg.sender] */\n      0x00\n        /* \"contracts/TokenFaucet.sol\":1082:1092  msg.sender */\n      caller\n        /* \"contracts/TokenFaucet.sol\":1069:1093  totalClaimed[msg.sender] */\n      0xffffffffffffffffffffffffffffffffffffffff\n      and\n      0xffffffffffffffffffffffffffffffffffffffff\n      and\n      dup2\n      mstore\n      0x20\n      add\n      swap1\n      dup2\n      mstore\n      0x20\n      add\n      0x00\n      keccak256\n      sload\n        /* \"contracts/TokenFaucet.sol\":1069:1109  totalClaimed[msg.sender] + FAUCET_AMOUNT */\n      tag_80\n      swap2\n      swap1\n      tag_76\n      jump\t// in\n    tag_80:\n        /* \"contracts/TokenFaucet.sol\":1069:1129  totalClaimed[msg.sender] + FAUCET_AMOUNT <= MAX_CLAIM_AMOUNT */\n      gt\n      iszero\n        /* \"contracts/TokenFaucet.sol\":1048:1183  require(... */\n      tag_81\n      jumpi\n      mload(0x40)\n      0x08c379a000000000000000000000000000000000000000000000000000000000\n      dup2\n      mstore\n      0x04\n      add\n      tag_82\n      swap1\n      tag_83\n      jump\t// in\n    tag_82:\n      mload(0x40)\n      dup1\n      swap2\n      sub\n      swap1\n      revert\n    tag_81:\n        /* \"contracts/TokenFaucet.sol\":1222:1237  block.timestamp */\n      timestamp\n        /* \"contracts/TokenFaucet.sol\":1194:1207  lastClaimedAt */\n      0x02\n        /* \"contracts/TokenFaucet.sol\":1194:1219  lastClaimedAt[msg.sender] */\n      0x00\n        /* \"contracts/TokenFaucet.sol\":1208:1218  msg.sender */\n      caller\n        /* \"contracts/TokenFaucet.sol\":1194:1219  lastClaimedAt[msg.sender] */\n      0xffffffffffffffffffffffffffffffffffffffff\n      and\n      0xffffffffffffffffffffffffffffffffffffffff\n      and\n      dup2\n      mstore\n      0x20\n      add\n      swap1\n      dup2\n      mstore\n      0x20\n      add\n      0x00\n      keccak256\n        /* \"contracts/TokenFaucet.sol\":1194:1237  lastClaimedAt[msg.sender] = block.timestamp */\n      dup2\n      swap1\n      sstore\n      pop\n        /* \"contracts/TokenFaucet.sol\":161:169  10 ** 18 */\n      0x0de0b6b3a7640000\n        /* \"contracts/TokenFaucet.sol\":1247:1259  totalClaimed */\n      0x03\n        /* \"contracts/TokenFaucet.sol\":1247:1271  totalClaimed[msg.sender] */\n      0x00\n        /* \"contracts/TokenFaucet.sol\":1260:1270  msg.sender */\n      caller\n        /* \"contracts/TokenFaucet.sol\":1247:1271  totalClaimed[msg.sender] */\n      0xffffffffffffffffffffffffffffffffffffffff\n      and\n      0xffffffffffffffffffffffffffffffffffffffff\n      and\n      dup2\n      mstore\n      0x20\n      add\n      swap1\n      dup2\n      mstore\n      0x20\n      add\n      0x00\n      keccak256\n      0x00\n        /* \"contracts/TokenFaucet.sol\":1247:1288  totalClaimed[msg.sender] += FAUCET_AMOUNT */\n      dup3\n      dup3\n      sload\n      tag_84\n      swap2\n      swap1\n      tag_76\n      jump\t// in\n    tag_84:\n      swap3\n      pop\n      pop\n      dup2\n      swap1\n      sstore\n      pop\n        /* \"contracts/TokenFaucet.sol\":1299:1304  token */\n      0x01\n      0x00\n      swap1\n      sload\n      swap1\n      0x0100\n      exp\n      swap1\n      div\n      0xffffffffffffffffffffffffffffffffffffffff\n      and\n        /* \"contracts/TokenFaucet.sol\":1299:1309  token.mint */\n      0xffffffffffffffffffffffffffffffffffffffff\n      and\n      0x40c10f19\n        /* \"contracts/TokenFaucet.sol\":1310:1320  msg.sender */\n      caller\n        /* \"contracts/TokenFaucet.sol\":161:169  10 ** 18 */\n      0x0de0b6b3a7640000\n        /* \"contracts/TokenFaucet.sol\":1299:1336  token.mint(msg.sender, FAUCET_AMOUNT) */\n      mload(0x40)\n      dup4\n      0xffffffff\n      and\n      0xe0\n      shl\n      dup2\n      mstore\n      0x04\n      add\n      tag_85\n      swap3\n      swap2\n      swap1\n      tag_86\n      jump\t// in\n    tag_85:\n      0x00\n      mload(0x40)\n      dup1\n      dup4\n      sub\n      dup2\n      0x00\n      dup8\n      dup1\n      extcodesize\n      iszero\n      dup1\n      iszero\n      tag_87\n      jumpi\n      revert(0x00, 0x00)\n    tag_87:\n      pop\n      gas\n      call\n      iszero\n      dup1\n      iszero\n      tag_89\n      jumpi\n      returndatacopy(0x00, 0x00, returndatasize)\n      revert(0x00, returndatasize)\n    tag_89:\n      pop\n      pop\n      pop\n      pop\n        /* \"contracts/TokenFaucet.sol\":1366:1376  msg.sender */\n      caller\n        /* \"contracts/TokenFaucet.sol\":1352:1409  TokensClaimed(msg.sender, FAUCET_AMOUNT, block.timestamp) */\n      0xffffffffffffffffffffffffffffffffffffffff\n      and\n      0x9923b4306c6c030f2bdfbf156517d5983b87e15b96176da122cd4f2effa4ba7b\n        /* \"contracts/TokenFaucet.sol\":161:169  10 ** 18 */\n      0x0de0b6b3a7640000\n        /* \"contracts/TokenFaucet.sol\":1393:1408  block.timestamp */\n      timestamp\n        /* \"contracts/TokenFaucet.sol\":1352:1409  TokensClaimed(msg.sender, FAUCET_AMOUNT, block.timestamp) */\n      mload(0x40)\n      tag_90\n      swap3\n      swap2\n      swap1\n      tag_91\n      jump\t// in\n    tag_90:\n      mload(0x40)\n      dup1\n      swap2\n      sub\n      swap1\n      log2\n        /* \"contracts/TokenFaucet.sol\":814:1416  function requestTokens() public {... */\n      jump\t// out\n        /* \"contracts/TokenFaucet.sol\":342:360  bool public paused */\n    tag_31:\n      0x01\n      0x14\n      swap1\n      sload\n      swap1\n      0x0100\n      exp\n      swap1\n      div\n      0xff\n      and\n      dup2\n      jump\t// out\n        /* \"contracts/TokenFaucet.sol\":121:169  uint256 public constant FAUCET_AMOUNT = 10 ** 18 */\n    tag_35:\n        /* \"contracts/TokenFaucet.sol\":161:169  10 ** 18 */\n      0x0de0b6b3a7640000\n        /* \"contracts/TokenFaucet.sol\":121:169  uint256 public constant FAUCET_AMOUNT = 10 ** 18 */\n      dup2\n      jump\t// out\n        /* \"contracts/TokenFaucet.sol\":175:220  uint256 public constant COOLDOWN_TIME = 86400 */\n    tag_38:\n        /* \"contracts/TokenFaucet.sol\":215:220  86400 */\n      0x015180\n        /* \"contracts/TokenFaucet.sol\":175:220  uint256 public constant COOLDOWN_TIME = 86400 */\n      dup2\n      jump\t// out\n        /* \"contracts/TokenFaucet.sol\":2031:2108  function isPaused() public view returns (bool) {... */\n    tag_41:\n        /* \"contracts/TokenFaucet.sol\":2072:2076  bool */\n      0x00\n        /* \"contracts/TokenFaucet.sol\":2095:2101  paused */\n      0x01\n      0x14\n      swap1\n      sload\n      swap1\n      0x0100\n      exp\n      swap1\n      div\n      0xff\n      and\n        /* \"contracts/TokenFaucet.sol\":2088:2101  return paused */\n      swap1\n      pop\n        /* \"contracts/TokenFaucet.sol\":2031:2108  function isPaused() public view returns (bool) {... */\n      swap1\n      jump\t// out\n        /* \"contracts/TokenFaucet.sol\":1422:1705  function canClaim(address user) public view returns (bool) {... */\n    tag_45:\n        /* \"contracts/TokenFaucet.sol\":1475:1479  bool */\n      0x00\n        /* \"contracts/TokenFaucet.sol\":1495:1501  paused */\n      0x01\n      0x14\n      swap1\n      sload\n      swap1\n      0x0100\n      exp\n      swap1\n      div\n      0xff\n      and\n        /* \"contracts/TokenFaucet.sol\":1491:1515  if (paused) return false */\n      iszero\n      tag_94\n      jumpi\n        /* \"contracts/TokenFaucet.sol\":1510:1515  false */\n      0x00\n        /* \"contracts/TokenFaucet.sol\":1503:1515  return false */\n      swap1\n      pop\n      jump(tag_93)\n        /* \"contracts/TokenFaucet.sol\":1491:1515  if (paused) return false */\n    tag_94:\n        /* \"contracts/TokenFaucet.sol\":215:220  86400 */\n      0x015180\n        /* \"contracts/TokenFaucet.sol\":1547:1560  lastClaimedAt */\n      0x02\n        /* \"contracts/TokenFaucet.sol\":1547:1566  lastClaimedAt[user] */\n      0x00\n        /* \"contracts/TokenFaucet.sol\":1561:1565  user */\n      dup5\n        /* \"contracts/TokenFaucet.sol\":1547:1566  lastClaimedAt[user] */\n      0xffffffffffffffffffffffffffffffffffffffff\n      and\n      0xffffffffffffffffffffffffffffffffffffffff\n      and\n      dup2\n      mstore\n      0x20\n      add\n      swap1\n      dup2\n      mstore\n      0x20\n      add\n      0x00\n      keccak256\n      sload\n        /* \"contracts/TokenFaucet.sol\":1547:1582  lastClaimedAt[user] + COOLDOWN_TIME */\n      tag_95\n      swap2\n      swap1\n      tag_76\n      jump\t// in\n    tag_95:\n        /* \"contracts/TokenFaucet.sol\":1529:1544  block.timestamp */\n      timestamp\n        /* \"contracts/TokenFaucet.sol\":1529:1582  block.timestamp < lastClaimedAt[user] + COOLDOWN_TIME */\n      lt\n        /* \"contracts/TokenFaucet.sol\":1525:1596  if (block.timestamp < lastClaimedAt[user] + COOLDOWN_TIME) return false */\n      iszero\n      tag_96\n      jumpi\n        /* \"contracts/TokenFaucet.sol\":1591:1596  false */\n      0x00\n        /* \"contracts/TokenFaucet.sol\":1584:1596  return false */\n      swap1\n      pop\n      jump(tag_93)\n        /* \"contracts/TokenFaucet.sol\":1525:1596  if (block.timestamp < lastClaimedAt[user] + COOLDOWN_TIME) return false */\n    tag_96:\n        /* \"contracts/TokenFaucet.sol\":269:285  100 * (10 ** 18) */\n      0x056bc75e2d63100000\n        /* \"contracts/TokenFaucet.sol\":161:169  10 ** 18 */\n      0x0de0b6b3a7640000\n        /* \"contracts/TokenFaucet.sol\":1610:1622  totalClaimed */\n      0x03\n        /* \"contracts/TokenFaucet.sol\":1610:1628  totalClaimed[user] */\n      0x00\n        /* \"contracts/TokenFaucet.sol\":1623:1627  user */\n      dup6\n        /* \"contracts/TokenFaucet.sol\":1610:1628  totalClaimed[user] */\n      0xffffffffffffffffffffffffffffffffffffffff\n      and\n      0xffffffffffffffffffffffffffffffffffffffff\n      and\n      dup2\n      mstore\n      0x20\n      add\n      swap1\n      dup2\n      mstore\n      0x20\n      add\n      0x00\n      keccak256\n      sload\n        /* \"contracts/TokenFaucet.sol\":1610:1644  totalClaimed[user] + FAUCET_AMOUNT */\n      tag_97\n      swap2\n      swap1\n      tag_76\n      jump\t// in\n    tag_97:\n        /* \"contracts/TokenFaucet.sol\":1610:1663  totalClaimed[user] + FAUCET_AMOUNT > MAX_CLAIM_AMOUNT */\n      gt\n        /* \"contracts/TokenFaucet.sol\":1606:1677  if (totalClaimed[user] + FAUCET_AMOUNT > MAX_CLAIM_AMOUNT) return false */\n      iszero\n      tag_98\n      jumpi\n        /* \"contracts/TokenFaucet.sol\":1672:1677  false */\n      0x00\n        /* \"contracts/TokenFaucet.sol\":1665:1677  return false */\n      swap1\n      pop\n      jump(tag_93)\n        /* \"contracts/TokenFaucet.sol\":1606:1677  if (totalClaimed[user] + FAUCET_AMOUNT > MAX_CLAIM_AMOUNT) return false */\n    tag_98:\n        /* \"contracts/TokenFaucet.sol\":1694:1698  true */\n      0x01\n        /* \"contracts/TokenFaucet.sol\":1687:1698  return true */\n      swap1\n      pop\n        /* \"contracts/TokenFaucet.sol\":1422:1705  function canClaim(address user) public view returns (bool) {... */\n    tag_93:\n      swap2\n      swap1\n      pop\n      jump\t// out\n        /* \"contracts/TokenFaucet.sol\":226:285  uint256 public constant MAX_CLAIM_AMOUNT = 100 * (10 ** 18) */\n    tag_48:\n        /* \"contracts/TokenFaucet.sol\":269:285  100 * (10 ** 18) */\n      0x056bc75e2d63100000\n        /* \"contracts/TokenFaucet.sol\":226:285  uint256 public constant MAX_CLAIM_AMOUNT = 100 * (10 ** 18) */\n      dup2\n      jump\t// out\n        /* \"contracts/TokenFaucet.sol\":420:467  mapping(address => uint256) public totalClaimed */\n    tag_52:\n      mstore(0x20, 0x03)\n      dup1\n      0x00\n      mstore\n      keccak256(0x00, 0x40)\n      0x00\n      swap2\n      pop\n      swap1\n      pop\n      sload\n      dup2\n      jump\t// out\n        /* \"contracts/TokenFaucet.sol\":1711:1844  function remainingAllowance(address user) public view returns (uint256) {... */\n    tag_56:\n        /* \"contracts/TokenFaucet.sol\":1774:1781  uint256 */\n      0x00\n        /* \"contracts/TokenFaucet.sol\":1819:1831  totalClaimed */\n      0x03\n        /* \"contracts/TokenFaucet.sol\":1819:1837  totalClaimed[user] */\n      0x00\n        /* \"contracts/TokenFaucet.sol\":1832:1836  user */\n      dup4\n        /* \"contracts/TokenFaucet.sol\":1819:1837  totalClaimed[user] */\n      0xffffffffffffffffffffffffffffffffffffffff\n      and\n      0xffffffffffffffffffffffffffffffffffffffff\n      and\n      dup2\n      mstore\n      0x20\n      add\n      swap1\n      dup2\n      mstore\n      0x20\n      add\n      0x00\n      keccak256\n      sload\n        /* \"contracts/TokenFaucet.sol\":269:285  100 * (10 ** 18) */\n      0x056bc75e2d63100000\n        /* \"contracts/TokenFaucet.sol\":1800:1837  MAX_CLAIM_AMOUNT - totalClaimed[user] */\n      tag_100\n      swap2\n      swap1\n      tag_101\n      jump\t// in\n    tag_100:\n        /* \"contracts/TokenFaucet.sol\":1793:1837  return MAX_CLAIM_AMOUNT - totalClaimed[user] */\n      swap1\n      pop\n        /* \"contracts/TokenFaucet.sol\":1711:1844  function remainingAllowance(address user) public view returns (uint256) {... */\n      swap2\n      swap1\n      pop\n      jump\t// out\n        /* \"contracts/TokenFaucet.sol\":291:311  address public admin */\n    tag_59:\n      0x00\n      0x00\n      swap1\n      sload\n      swap1\n      0x0100\n      exp\n      swap1\n      div\n      0xffffffffffffffffffffffffffffffffffffffff\n      and\n      dup2\n      jump\t// out\n        /* \"contracts/TokenFaucet.sol\":317:336  IToken public token */\n    tag_63:\n      0x01\n      0x00\n      swap1\n      sload\n      swap1\n      0x0100\n      exp\n      swap1\n      div\n      0xffffffffffffffffffffffffffffffffffffffff\n      and\n      dup2\n      jump\t// out\n        /* \"#utility.yul\":88:205   */\n    tag_103:\n        /* \"#utility.yul\":197:198   */\n      0x00\n        /* \"#utility.yul\":194:195   */\n      0x00\n        /* \"#utility.yul\":187:199   */\n      revert\n        /* \"#utility.yul\":334:424   */\n    tag_105:\n        /* \"#utility.yul\":368:375   */\n      0x00\n        /* \"#utility.yul\":411:416   */\n      dup2\n        /* \"#utility.yul\":404:417   */\n      iszero\n        /* \"#utility.yul\":397:418   */\n      iszero\n        /* \"#utility.yul\":386:418   */\n      swap1\n      pop\n        /* \"#utility.yul\":334:424   */\n      swap2\n      swap1\n      pop\n      jump\t// out\n        /* \"#utility.yul\":430:546   */\n    tag_106:\n        /* \"#utility.yul\":500:521   */\n      tag_137\n        /* \"#utility.yul\":515:520   */\n      dup2\n        /* \"#utility.yul\":500:521   */\n      tag_105\n      jump\t// in\n    tag_137:\n        /* \"#utility.yul\":493:498   */\n      dup2\n        /* \"#utility.yul\":490:522   */\n      eq\n        /* \"#utility.yul\":480:540   */\n      tag_138\n      jumpi\n        /* \"#utility.yul\":536:537   */\n      0x00\n        /* \"#utility.yul\":533:534   */\n      0x00\n        /* \"#utility.yul\":526:538   */\n      revert\n        /* \"#utility.yul\":480:540   */\n    tag_138:\n        /* \"#utility.yul\":430:546   */\n      pop\n      jump\t// out\n        /* \"#utility.yul\":552:685   */\n    tag_107:\n        /* \"#utility.yul\":595:600   */\n      0x00\n        /* \"#utility.yul\":633:639   */\n      dup2\n        /* \"#utility.yul\":620:640   */\n      calldataload\n        /* \"#utility.yul\":611:640   */\n      swap1\n      pop\n        /* \"#utility.yul\":649:679   */\n      tag_140\n        /* \"#utility.yul\":673:678   */\n      dup2\n        /* \"#utility.yul\":649:679   */\n      tag_106\n      jump\t// in\n    tag_140:\n        /* \"#utility.yul\":552:685   */\n      swap3\n      swap2\n      pop\n      pop\n      jump\t// out\n        /* \"#utility.yul\":691:1014   */\n    tag_20:\n        /* \"#utility.yul\":747:753   */\n      0x00\n        /* \"#utility.yul\":796:798   */\n      0x20\n        /* \"#utility.yul\":784:793   */\n      dup3\n        /* \"#utility.yul\":775:782   */\n      dup5\n        /* \"#utility.yul\":771:794   */\n      sub\n        /* \"#utility.yul\":767:799   */\n      slt\n        /* \"#utility.yul\":764:883   */\n      iszero\n      tag_142\n      jumpi\n        /* \"#utility.yul\":802:881   */\n      tag_143\n      tag_103\n      jump\t// in\n    tag_143:\n        /* \"#utility.yul\":764:883   */\n    tag_142:\n        /* \"#utility.yul\":922:923   */\n      0x00\n        /* \"#utility.yul\":947:997   */\n      tag_144\n        /* \"#utility.yul\":989:996   */\n      dup5\n        /* \"#utility.yul\":980:986   */\n      dup3\n        /* \"#utility.yul\":969:978   */\n      dup6\n        /* \"#utility.yul\":965:987   */\n      add\n        /* \"#utility.yul\":947:997   */\n      tag_107\n      jump\t// in\n    tag_144:\n        /* \"#utility.yul\":937:997   */\n      swap2\n      pop\n        /* \"#utility.yul\":893:1007   */\n      pop\n        /* \"#utility.yul\":691:1014   */\n      swap3\n      swap2\n      pop\n      pop\n      jump\t// out\n        /* \"#utility.yul\":1020:1146   */\n    tag_108:\n        /* \"#utility.yul\":1057:1064   */\n      0x00\n        /* \"#utility.yul\":1097:1139   */\n      0xffffffffffffffffffffffffffffffffffffffff\n        /* \"#utility.yul\":1090:1095   */\n      dup3\n        /* \"#utility.yul\":1086:1140   */\n      and\n        /* \"#utility.yul\":1075:1140   */\n      swap1\n      pop\n        /* \"#utility.yul\":1020:1146   */\n      swap2\n      swap1\n      pop\n      jump\t// out\n        /* \"#utility.yul\":1152:1248   */\n    tag_109:\n        /* \"#utility.yul\":1189:1196   */\n      0x00\n        /* \"#utility.yul\":1218:1242   */\n      tag_147\n        /* \"#utility.yul\":1236:1241   */\n      dup3\n        /* \"#utility.yul\":1218:1242   */\n      tag_108\n      jump\t// in\n    tag_147:\n        /* \"#utility.yul\":1207:1242   */\n      swap1\n      pop\n        /* \"#utility.yul\":1152:1248   */\n      swap2\n      swap1\n      pop\n      jump\t// out\n        /* \"#utility.yul\":1254:1376   */\n    tag_110:\n        /* \"#utility.yul\":1327:1351   */\n      tag_149\n        /* \"#utility.yul\":1345:1350   */\n      dup2\n        /* \"#utility.yul\":1327:1351   */\n      tag_109\n      jump\t// in\n    tag_149:\n        /* \"#utility.yul\":1320:1325   */\n      dup2\n        /* \"#utility.yul\":1317:1352   */\n      eq\n        /* \"#utility.yul\":1307:1370   */\n      tag_150\n      jumpi\n        /* \"#utility.yul\":1366:1367   */\n      0x00\n        /* \"#utility.yul\":1363:1364   */\n      0x00\n        /* \"#utility.yul\":1356:1368   */\n      revert\n        /* \"#utility.yul\":1307:1370   */\n    tag_150:\n        /* \"#utility.yul\":1254:1376   */\n      pop\n      jump\t// out\n        /* \"#utility.yul\":1382:1521   */\n    tag_111:\n        /* \"#utility.yul\":1428:1433   */\n      0x00\n        /* \"#utility.yul\":1466:1472   */\n      dup2\n        /* \"#utility.yul\":1453:1473   */\n      calldataload\n        /* \"#utility.yul\":1444:1473   */\n      swap1\n      pop\n        /* \"#utility.yul\":1482:1515   */\n      tag_152\n        /* \"#utility.yul\":1509:1514   */\n      dup2\n        /* \"#utility.yul\":1482:1515   */\n      tag_110\n      jump\t// in\n    tag_152:\n        /* \"#utility.yul\":1382:1521   */\n      swap3\n      swap2\n      pop\n      pop\n      jump\t// out\n        /* \"#utility.yul\":1527:1856   */\n    tag_24:\n        /* \"#utility.yul\":1586:1592   */\n      0x00\n        /* \"#utility.yul\":1635:1637   */\n      0x20\n        /* \"#utility.yul\":1623:1632   */\n      dup3\n        /* \"#utility.yul\":1614:1621   */\n      dup5\n        /* \"#utility.yul\":1610:1633   */\n      sub\n        /* \"#utility.yul\":1606:1638   */\n      slt\n        /* \"#utility.yul\":1603:1722   */\n      iszero\n      tag_154\n      jumpi\n        /* \"#utility.yul\":1641:1720   */\n      tag_155\n      tag_103\n      jump\t// in\n    tag_155:\n        /* \"#utility.yul\":1603:1722   */\n    tag_154:\n        /* \"#utility.yul\":1761:1762   */\n      0x00\n        /* \"#utility.yul\":1786:1839   */\n      tag_156\n        /* \"#utility.yul\":1831:1838   */\n      dup5\n        /* \"#utility.yul\":1822:1828   */\n      dup3\n        /* \"#utility.yul\":1811:1820   */\n      dup6\n        /* \"#utility.yul\":1807:1829   */\n      add\n        /* \"#utility.yul\":1786:1839   */\n      tag_111\n      jump\t// in\n    tag_156:\n        /* \"#utility.yul\":1776:1839   */\n      swap2\n      pop\n        /* \"#utility.yul\":1732:1849   */\n      pop\n        /* \"#utility.yul\":1527:1856   */\n      swap3\n      swap2\n      pop\n      pop\n      jump\t// out\n        /* \"#utility.yul\":1862:1939   */\n    tag_112:\n        /* \"#utility.yul\":1899:1906   */\n      0x00\n        /* \"#utility.yul\":1928:1933   */\n      dup2\n        /* \"#utility.yul\":1917:1933   */\n      swap1\n      pop\n        /* \"#utility.yul\":1862:1939   */\n      swap2\n      swap1\n      pop\n      jump\t// out\n        /* \"#utility.yul\":1945:2063   */\n    tag_113:\n        /* \"#utility.yul\":2032:2056   */\n      tag_159\n        /* \"#utility.yul\":2050:2055   */\n      dup2\n        /* \"#utility.yul\":2032:2056   */\n      tag_112\n      jump\t// in\n    tag_159:\n        /* \"#utility.yul\":2027:2030   */\n      dup3\n        /* \"#utility.yul\":2020:2057   */\n      mstore\n        /* \"#utility.yul\":1945:2063   */\n      pop\n      pop\n      jump\t// out\n        /* \"#utility.yul\":2069:2291   */\n    tag_27:\n        /* \"#utility.yul\":2162:2166   */\n      0x00\n        /* \"#utility.yul\":2200:2202   */\n      0x20\n        /* \"#utility.yul\":2189:2198   */\n      dup3\n        /* \"#utility.yul\":2185:2203   */\n      add\n        /* \"#utility.yul\":2177:2203   */\n      swap1\n      pop\n        /* \"#utility.yul\":2213:2284   */\n      tag_161\n        /* \"#utility.yul\":2281:2282   */\n      0x00\n        /* \"#utility.yul\":2270:2279   */\n      dup4\n        /* \"#utility.yul\":2266:2283   */\n      add\n        /* \"#utility.yul\":2257:2263   */\n      dup5\n        /* \"#utility.yul\":2213:2284   */\n      tag_113\n      jump\t// in\n    tag_161:\n        /* \"#utility.yul\":2069:2291   */\n      swap3\n      swap2\n      pop\n      pop\n      jump\t// out\n        /* \"#utility.yul\":2297:2406   */\n    tag_114:\n        /* \"#utility.yul\":2378:2399   */\n      tag_163\n        /* \"#utility.yul\":2393:2398   */\n      dup2\n        /* \"#utility.yul\":2378:2399   */\n      tag_105\n      jump\t// in\n    tag_163:\n        /* \"#utility.yul\":2373:2376   */\n      dup3\n        /* \"#utility.yul\":2366:2400   */\n      mstore\n        /* \"#utility.yul\":2297:2406   */\n      pop\n      pop\n      jump\t// out\n        /* \"#utility.yul\":2412:2622   */\n    tag_33:\n        /* \"#utility.yul\":2499:2503   */\n      0x00\n        /* \"#utility.yul\":2537:2539   */\n      0x20\n        /* \"#utility.yul\":2526:2535   */\n      dup3\n        /* \"#utility.yul\":2522:2540   */\n      add\n        /* \"#utility.yul\":2514:2540   */\n      swap1\n      pop\n        /* \"#utility.yul\":2550:2615   */\n      tag_165\n        /* \"#utility.yul\":2612:2613   */\n      0x00\n        /* \"#utility.yul\":2601:2610   */\n      dup4\n        /* \"#utility.yul\":2597:2614   */\n      add\n        /* \"#utility.yul\":2588:2594   */\n      dup5\n        /* \"#utility.yul\":2550:2615   */\n      tag_114\n      jump\t// in\n    tag_165:\n        /* \"#utility.yul\":2412:2622   */\n      swap3\n      swap2\n      pop\n      pop\n      jump\t// out\n        /* \"#utility.yul\":2628:2746   */\n    tag_115:\n        /* \"#utility.yul\":2715:2739   */\n      tag_167\n        /* \"#utility.yul\":2733:2738   */\n      dup2\n        /* \"#utility.yul\":2715:2739   */\n      tag_109\n      jump\t// in\n    tag_167:\n        /* \"#utility.yul\":2710:2713   */\n      dup3\n        /* \"#utility.yul\":2703:2740   */\n      mstore\n        /* \"#utility.yul\":2628:2746   */\n      pop\n      pop\n      jump\t// out\n        /* \"#utility.yul\":2752:2974   */\n    tag_61:\n        /* \"#utility.yul\":2845:2849   */\n      0x00\n        /* \"#utility.yul\":2883:2885   */\n      0x20\n        /* \"#utility.yul\":2872:2881   */\n      dup3\n        /* \"#utility.yul\":2868:2886   */\n      add\n        /* \"#utility.yul\":2860:2886   */\n      swap1\n      pop\n        /* \"#utility.yul\":2896:2967   */\n      tag_169\n        /* \"#utility.yul\":2964:2965   */\n      0x00\n        /* \"#utility.yul\":2953:2962   */\n      dup4\n        /* \"#utility.yul\":2949:2966   */\n      add\n        /* \"#utility.yul\":2940:2946   */\n      dup5\n        /* \"#utility.yul\":2896:2967   */\n      tag_115\n      jump\t// in\n    tag_169:\n        /* \"#utility.yul\":2752:2974   */\n      swap3\n      swap2\n      pop\n      pop\n      jump\t// out\n        /* \"#utility.yul\":2980:3040   */\n    tag_116:\n        /* \"#utility.yul\":3008:3011   */\n      0x00\n        /* \"#utility.yul\":3029:3034   */\n      dup2\n        /* \"#utility.yul\":3022:3034   */\n      swap1\n      pop\n        /* \"#utility.yul\":2980:3040   */\n      swap2\n      swap1\n      pop\n      jump\t// out\n        /* \"#utility.yul\":3046:3188   */\n    tag_117:\n        /* \"#utility.yul\":3096:3105   */\n      0x00\n        /* \"#utility.yul\":3129:3182   */\n      tag_172\n        /* \"#utility.yul\":3147:3181   */\n      tag_173\n        /* \"#utility.yul\":3156:3180   */\n      tag_174\n        /* \"#utility.yul\":3174:3179   */\n      dup5\n        /* \"#utility.yul\":3156:3180   */\n      tag_108\n      jump\t// in\n    tag_174:\n        /* \"#utility.yul\":3147:3181   */\n      tag_116\n      jump\t// in\n    tag_173:\n        /* \"#utility.yul\":3129:3182   */\n      tag_108\n      jump\t// in\n    tag_172:\n        /* \"#utility.yul\":3116:3182   */\n      swap1\n      pop\n        /* \"#utility.yul\":3046:3188   */\n      swap2\n      swap1\n      pop\n      jump\t// out\n        /* \"#utility.yul\":3194:3320   */\n    tag_118:\n        /* \"#utility.yul\":3244:3253   */\n      0x00\n        /* \"#utility.yul\":3277:3314   */\n      tag_176\n        /* \"#utility.yul\":3308:3313   */\n      dup3\n        /* \"#utility.yul\":3277:3314   */\n      tag_117\n      jump\t// in\n    tag_176:\n        /* \"#utility.yul\":3264:3314   */\n      swap1\n      pop\n        /* \"#utility.yul\":3194:3320   */\n      swap2\n      swap1\n      pop\n      jump\t// out\n        /* \"#utility.yul\":3326:3464   */\n    tag_119:\n        /* \"#utility.yul\":3388:3397   */\n      0x00\n        /* \"#utility.yul\":3421:3458   */\n      tag_178\n        /* \"#utility.yul\":3452:3457   */\n      dup3\n        /* \"#utility.yul\":3421:3458   */\n      tag_118\n      jump\t// in\n    tag_178:\n        /* \"#utility.yul\":3408:3458   */\n      swap1\n      pop\n        /* \"#utility.yul\":3326:3464   */\n      swap2\n      swap1\n      pop\n      jump\t// out\n        /* \"#utility.yul\":3470:3625   */\n    tag_120:\n        /* \"#utility.yul\":3569:3618   */\n      tag_180\n        /* \"#utility.yul\":3612:3617   */\n      dup2\n        /* \"#utility.yul\":3569:3618   */\n      tag_119\n      jump\t// in\n    tag_180:\n        /* \"#utility.yul\":3564:3567   */\n      dup3\n        /* \"#utility.yul\":3557:3619   */\n      mstore\n        /* \"#utility.yul\":3470:3625   */\n      pop\n      pop\n      jump\t// out\n        /* \"#utility.yul\":3631:3877   */\n    tag_65:\n        /* \"#utility.yul\":3736:3740   */\n      0x00\n        /* \"#utility.yul\":3774:3776   */\n      0x20\n        /* \"#utility.yul\":3763:3772   */\n      dup3\n        /* \"#utility.yul\":3759:3777   */\n      add\n        /* \"#utility.yul\":3751:3777   */\n      swap1\n      pop\n        /* \"#utility.yul\":3787:3870   */\n      tag_182\n        /* \"#utility.yul\":3867:3868   */\n      0x00\n        /* \"#utility.yul\":3856:3865   */\n      dup4\n        /* \"#utility.yul\":3852:3869   */\n      add\n        /* \"#utility.yul\":3843:3849   */\n      dup5\n        /* \"#utility.yul\":3787:3870   */\n      tag_120\n      jump\t// in\n    tag_182:\n        /* \"#utility.yul\":3631:3877   */\n      swap3\n      swap2\n      pop\n      pop\n      jump\t// out\n        /* \"#utility.yul\":3883:4052   */\n    tag_121:\n        /* \"#utility.yul\":3967:3978   */\n      0x00\n        /* \"#utility.yul\":4001:4007   */\n      dup3\n        /* \"#utility.yul\":3996:3999   */\n      dup3\n        /* \"#utility.yul\":3989:4008   */\n      mstore\n        /* \"#utility.yul\":4041:4045   */\n      0x20\n        /* \"#utility.yul\":4036:4039   */\n      dup3\n        /* \"#utility.yul\":4032:4046   */\n      add\n        /* \"#utility.yul\":4017:4046   */\n      swap1\n      pop\n        /* \"#utility.yul\":3883:4052   */\n      swap3\n      swap2\n      pop\n      pop\n      jump\t// out\n        /* \"#utility.yul\":4058:4232   */\n    tag_122:\n        /* \"#utility.yul\":4198:4224   */\n      0x4f6e6c7920617574686172697a65642062792041646d696e0000000000000000\n        /* \"#utility.yul\":4194:4195   */\n      0x00\n        /* \"#utility.yul\":4186:4192   */\n      dup3\n        /* \"#utility.yul\":4182:4196   */\n      add\n        /* \"#utility.yul\":4175:4225   */\n      mstore\n        /* \"#utility.yul\":4058:4232   */\n      pop\n      jump\t// out\n        /* \"#utility.yul\":4238:4604   */\n    tag_123:\n        /* \"#utility.yul\":4380:4383   */\n      0x00\n        /* \"#utility.yul\":4401:4468   */\n      tag_186\n        /* \"#utility.yul\":4465:4467   */\n      0x18\n        /* \"#utility.yul\":4460:4463   */\n      dup4\n        /* \"#utility.yul\":4401:4468   */\n      tag_121\n      jump\t// in\n    tag_186:\n        /* \"#utility.yul\":4394:4468   */\n      swap2\n      pop\n        /* \"#utility.yul\":4477:4570   */\n      tag_187\n        /* \"#utility.yul\":4566:4569   */\n      dup3\n        /* \"#utility.yul\":4477:4570   */\n      tag_122\n      jump\t// in\n    tag_187:\n        /* \"#utility.yul\":4595:4597   */\n      0x20\n        /* \"#utility.yul\":4590:4593   */\n      dup3\n        /* \"#utility.yul\":4586:4598   */\n      add\n        /* \"#utility.yul\":4579:4598   */\n      swap1\n      pop\n        /* \"#utility.yul\":4238:4604   */\n      swap2\n      swap1\n      pop\n      jump\t// out\n        /* \"#utility.yul\":4610:5029   */\n    tag_69:\n        /* \"#utility.yul\":4776:4780   */\n      0x00\n        /* \"#utility.yul\":4814:4816   */\n      0x20\n        /* \"#utility.yul\":4803:4812   */\n      dup3\n        /* \"#utility.yul\":4799:4817   */\n      add\n        /* \"#utility.yul\":4791:4817   */\n      swap1\n      pop\n        /* \"#utility.yul\":4863:4872   */\n      dup2\n        /* \"#utility.yul\":4857:4861   */\n      dup2\n        /* \"#utility.yul\":4853:4873   */\n      sub\n        /* \"#utility.yul\":4849:4850   */\n      0x00\n        /* \"#utility.yul\":4838:4847   */\n      dup4\n        /* \"#utility.yul\":4834:4851   */\n      add\n        /* \"#utility.yul\":4827:4874   */\n      mstore\n        /* \"#utility.yul\":4891:5022   */\n      tag_189\n        /* \"#utility.yul\":5017:5021   */\n      dup2\n        /* \"#utility.yul\":4891:5022   */\n      tag_123\n      jump\t// in\n    tag_189:\n        /* \"#utility.yul\":4883:5022   */\n      swap1\n      pop\n        /* \"#utility.yul\":4610:5029   */\n      swap2\n      swap1\n      pop\n      jump\t// out\n        /* \"#utility.yul\":5035:5201   */\n    tag_124:\n        /* \"#utility.yul\":5175:5193   */\n      0x4661756365742069732070617573656400000000000000000000000000000000\n        /* \"#utility.yul\":5171:5172   */\n      0x00\n        /* \"#utility.yul\":5163:5169   */\n      dup3\n        /* \"#utility.yul\":5159:5173   */\n      add\n        /* \"#utility.yul\":5152:5194   */\n      mstore\n        /* \"#utility.yul\":5035:5201   */\n      pop\n      jump\t// out\n        /* \"#utility.yul\":5207:5573   */\n    tag_125:\n        /* \"#utility.yul\":5349:5352   */\n      0x00\n        /* \"#utility.yul\":5370:5437   */\n      tag_192\n        /* \"#utility.yul\":5434:5436   */\n      0x10\n        /* \"#utility.yul\":5429:5432   */\n      dup4\n        /* \"#utility.yul\":5370:5437   */\n      tag_121\n      jump\t// in\n    tag_192:\n        /* \"#utility.yul\":5363:5437   */\n      swap2\n      pop\n        /* \"#utility.yul\":5446:5539   */\n      tag_193\n        /* \"#utility.yul\":5535:5538   */\n      dup3\n        /* \"#utility.yul\":5446:5539   */\n      tag_124\n      jump\t// in\n    tag_193:\n        /* \"#utility.yul\":5564:5566   */\n      0x20\n        /* \"#utility.yul\":5559:5562   */\n      dup3\n        /* \"#utility.yul\":5555:5567   */\n      add\n        /* \"#utility.yul\":5548:5567   */\n      swap1\n      pop\n        /* \"#utility.yul\":5207:5573   */\n      swap2\n      swap1\n      pop\n      jump\t// out\n        /* \"#utility.yul\":5579:5998   */\n    tag_74:\n        /* \"#utility.yul\":5745:5749   */\n      0x00\n        /* \"#utility.yul\":5783:5785   */\n      0x20\n        /* \"#utility.yul\":5772:5781   */\n      dup3\n        /* \"#utility.yul\":5768:5786   */\n      add\n        /* \"#utility.yul\":5760:5786   */\n      swap1\n      pop\n        /* \"#utility.yul\":5832:5841   */\n      dup2\n        /* \"#utility.yul\":5826:5830   */\n      dup2\n        /* \"#utility.yul\":5822:5842   */\n      sub\n        /* \"#utility.yul\":5818:5819   */\n      0x00\n        /* \"#utility.yul\":5807:5816   */\n      dup4\n        /* \"#utility.yul\":5803:5820   */\n      add\n        /* \"#utility.yul\":5796:5843   */\n      mstore\n        /* \"#utility.yul\":5860:5991   */\n      tag_195\n        /* \"#utility.yul\":5986:5990   */\n      dup2\n        /* \"#utility.yul\":5860:5991   */\n      tag_125\n      jump\t// in\n    tag_195:\n        /* \"#utility.yul\":5852:5991   */\n      swap1\n      pop\n        /* \"#utility.yul\":5579:5998   */\n      swap2\n      swap1\n      pop\n      jump\t// out\n        /* \"#utility.yul\":6004:6184   */\n    tag_126:\n        /* \"#utility.yul\":6052:6129   */\n      0x4e487b7100000000000000000000000000000000000000000000000000000000\n        /* \"#utility.yul\":6049:6050   */\n      0x00\n        /* \"#utility.yul\":6042:6130   */\n      mstore\n        /* \"#utility.yul\":6149:6153   */\n      0x11\n        /* \"#utility.yul\":6146:6147   */\n      0x04\n        /* \"#utility.yul\":6139:6154   */\n      mstore\n        /* \"#utility.yul\":6173:6177   */\n      0x24\n        /* \"#utility.yul\":6170:6171   */\n      0x00\n        /* \"#utility.yul\":6163:6178   */\n      revert\n        /* \"#utility.yul\":6190:6381   */\n    tag_76:\n        /* \"#utility.yul\":6230:6233   */\n      0x00\n        /* \"#utility.yul\":6249:6269   */\n      tag_198\n        /* \"#utility.yul\":6267:6268   */\n      dup3\n        /* \"#utility.yul\":6249:6269   */\n      tag_112\n      jump\t// in\n    tag_198:\n        /* \"#utility.yul\":6244:6269   */\n      swap2\n      pop\n        /* \"#utility.yul\":6283:6303   */\n      tag_199\n        /* \"#utility.yul\":6301:6302   */\n      dup4\n        /* \"#utility.yul\":6283:6303   */\n      tag_112\n      jump\t// in\n    tag_199:\n        /* \"#utility.yul\":6278:6303   */\n      swap3\n      pop\n        /* \"#utility.yul\":6326:6327   */\n      dup3\n        /* \"#utility.yul\":6323:6324   */\n      dup3\n        /* \"#utility.yul\":6319:6328   */\n      add\n        /* \"#utility.yul\":6312:6328   */\n      swap1\n      pop\n        /* \"#utility.yul\":6347:6350   */\n      dup1\n        /* \"#utility.yul\":6344:6345   */\n      dup3\n        /* \"#utility.yul\":6341:6351   */\n      gt\n        /* \"#utility.yul\":6338:6374   */\n      iszero\n      tag_200\n      jumpi\n        /* \"#utility.yul\":6354:6372   */\n      tag_201\n      tag_126\n      jump\t// in\n    tag_201:\n        /* \"#utility.yul\":6338:6374   */\n    tag_200:\n        /* \"#utility.yul\":6190:6381   */\n      swap3\n      swap2\n      pop\n      pop\n      jump\t// out\n        /* \"#utility.yul\":6387:6564   */\n    tag_127:\n        /* \"#utility.yul\":6527:6556   */\n      0x436f6f6c646f776e20706572696f64206e6f7420656c61707365640000000000\n        /* \"#utility.yul\":6523:6524   */\n      0x00\n        /* \"#utility.yul\":6515:6521   */\n      dup3\n        /* \"#utility.yul\":6511:6525   */\n      add\n        /* \"#utility.yul\":6504:6557   */\n      mstore\n        /* \"#utility.yul\":6387:6564   */\n      pop\n      jump\t// out\n        /* \"#utility.yul\":6570:6936   */\n    tag_128:\n        /* \"#utility.yul\":6712:6715   */\n      0x00\n        /* \"#utility.yul\":6733:6800   */\n      tag_204\n        /* \"#utility.yul\":6797:6799   */\n      0x1b\n        /* \"#utility.yul\":6792:6795   */\n      dup4\n        /* \"#utility.yul\":6733:6800   */\n      tag_121\n      jump\t// in\n    tag_204:\n        /* \"#utility.yul\":6726:6800   */\n      swap2\n      pop\n        /* \"#utility.yul\":6809:6902   */\n      tag_205\n        /* \"#utility.yul\":6898:6901   */\n      dup3\n        /* \"#utility.yul\":6809:6902   */\n      tag_127\n      jump\t// in\n    tag_205:\n        /* \"#utility.yul\":6927:6929   */\n      0x20\n        /* \"#utility.yul\":6922:6925   */\n      dup3\n        /* \"#utility.yul\":6918:6930   */\n      add\n        /* \"#utility.yul\":6911:6930   */\n      swap1\n      pop\n        /* \"#utility.yul\":6570:6936   */\n      swap2\n      swap1\n      pop\n      jump\t// out\n        /* \"#utility.yul\":6942:7361   */\n    tag_79:\n        /* \"#utility.yul\":7108:7112   */\n      0x00\n        /* \"#utility.yul\":7146:7148   */\n      0x20\n        /* \"#utility.yul\":7135:7144   */\n      dup3\n        /* \"#utility.yul\":7131:7149   */\n      add\n        /* \"#utility.yul\":7123:7149   */\n      swap1\n      pop\n        /* \"#utility.yul\":7195:7204   */\n      dup2\n        /* \"#utility.yul\":7189:7193   */\n      dup2\n        /* \"#utility.yul\":7185:7205   */\n      sub\n        /* \"#utility.yul\":7181:7182   */\n      0x00\n        /* \"#utility.yul\":7170:7179   */\n      dup4\n        /* \"#utility.yul\":7166:7183   */\n      add\n        /* \"#utility.yul\":7159:7206   */\n      mstore\n        /* \"#utility.yul\":7223:7354   */\n      tag_207\n        /* \"#utility.yul\":7349:7353   */\n      dup2\n        /* \"#utility.yul\":7223:7354   */\n      tag_128\n      jump\t// in\n    tag_207:\n        /* \"#utility.yul\":7215:7354   */\n      swap1\n      pop\n        /* \"#utility.yul\":6942:7361   */\n      swap2\n      swap1\n      pop\n      jump\t// out\n        /* \"#utility.yul\":7367:7545   */\n    tag_129:\n        /* \"#utility.yul\":7507:7537   */\n      0x4c69666574696d6520636c61696d206c696d6974207265616368656400000000\n        /* \"#utility.yul\":7503:7504   */\n      0x00\n        /* \"#utility.yul\":7495:7501   */\n      dup3\n        /* \"#utility.yul\":7491:7505   */\n      add\n        /* \"#utility.yul\":7484:7538   */\n      mstore\n        /* \"#utility.yul\":7367:7545   */\n      pop\n      jump\t// out\n        /* \"#utility.yul\":7551:7917   */\n    tag_130:\n        /* \"#utility.yul\":7693:7696   */\n      0x00\n        /* \"#utility.yul\":7714:7781   */\n      tag_210\n        /* \"#utility.yul\":7778:7780   */\n      0x1c\n        /* \"#utility.yul\":7773:7776   */\n      dup4\n        /* \"#utility.yul\":7714:7781   */\n      tag_121\n      jump\t// in\n    tag_210:\n        /* \"#utility.yul\":7707:7781   */\n      swap2\n      pop\n        /* \"#utility.yul\":7790:7883   */\n      tag_211\n        /* \"#utility.yul\":7879:7882   */\n      dup3\n        /* \"#utility.yul\":7790:7883   */\n      tag_129\n      jump\t// in\n    tag_211:\n        /* \"#utility.yul\":7908:7910   */\n      0x20\n        /* \"#utility.yul\":7903:7906   */\n      dup3\n        /* \"#utility.yul\":7899:7911   */\n      add\n        /* \"#utility.yul\":7892:7911   */\n      swap1\n      pop\n        /* \"#utility.yul\":7551:7917   */\n      swap2\n      swap1\n      pop\n      jump\t// out\n        /* \"#utility.yul\":7923:8342   */\n    tag_83:\n        /* \"#utility.yul\":8089:8093   */\n      0x00\n        /* \"#utility.yul\":8127:8129   */\n      0x20\n        /* \"#utility.yul\":8116:8125   */\n      dup3\n        /* \"#utility.yul\":8112:8130   */\n      add\n        /* \"#utility.yul\":8104:8130   */\n      swap1\n      pop\n        /* \"#utility.yul\":8176:8185   */\n      dup2\n        /* \"#utility.yul\":8170:8174   */\n      dup2\n        /* \"#utility.yul\":8166:8186   */\n      sub\n        /* \"#utility.yul\":8162:8163   */\n      0x00\n        /* \"#utility.yul\":8151:8160   */\n      dup4\n        /* \"#utility.yul\":8147:8164   */\n      add\n        /* \"#utility.yul\":8140:8187   */\n      mstore\n        /* \"#utility.yul\":8204:8335   */\n      tag_213\n        /* \"#utility.yul\":8330:8334   */\n      dup2\n        /* \"#utility.yul\":8204:8335   */\n      tag_130\n      jump\t// in\n    tag_213:\n        /* \"#utility.yul\":8196:8335   */\n      swap1\n      pop\n        /* \"#utility.yul\":7923:8342   */\n      swap2\n      swap1\n      pop\n      jump\t// out\n        /* \"#utility.yul\":8348:8680   */\n    tag_86:\n        /* \"#utility.yul\":8469:8473   */\n      0x00\n        /* \"#utility.yul\":8507:8509   */\n      0x40\n        /* \"#utility.yul\":8496:8505   */\n      dup3\n        /* \"#utility.yul\":8492:8510   */\n      add\n        /* \"#utility.yul\":8484:8510   */\n      swap1\n      pop\n        /* \"#utility.yul\":8520:8591   */\n      tag_215\n        /* \"#utility.yul\":8588:8589   */\n      0x00\n        /* \"#utility.yul\":8577:8586   */\n      dup4\n        /* \"#utility.yul\":8573:8590   */\n      add\n        /* \"#utility.yul\":8564:8570   */\n      dup6\n        /* \"#utility.yul\":8520:8591   */\n      tag_115\n      jump\t// in\n    tag_215:\n        /* \"#utility.yul\":8601:8673   */\n      tag_216\n        /* \"#utility.yul\":8669:8671   */\n      0x20\n        /* \"#utility.yul\":8658:8667   */\n      dup4\n        /* \"#utility.yul\":8654:8672   */\n      add\n        /* \"#utility.yul\":8645:8651   */\n      dup5\n        /* \"#utility.yul\":8601:8673   */\n      tag_113\n      jump\t// in\n    tag_216:\n        /* \"#utility.yul\":8348:8680   */\n      swap4\n      swap3\n      pop\n      pop\n      pop\n      jump\t// out\n        /* \"#utility.yul\":8686:9018   */\n    tag_91:\n        /* \"#utility.yul\":8807:8811   */\n      0x00\n        /* \"#utility.yul\":8845:8847   */\n      0x40\n        /* \"#utility.yul\":8834:8843   */\n      dup3\n        /* \"#utility.yul\":8830:8848   */\n      add\n        /* \"#utility.yul\":8822:8848   */\n      swap1\n      pop\n        /* \"#utility.yul\":8858:8929   */\n      tag_218\n        /* \"#utility.yul\":8926:8927   */\n      0x00\n        /* \"#utility.yul\":8915:8924   */\n      dup4\n        /* \"#utility.yul\":8911:8928   */\n      add\n        /* \"#utility.yul\":8902:8908   */\n      dup6\n        /* \"#utility.yul\":8858:8929   */\n      tag_113\n      jump\t// in\n    tag_218:\n        /* \"#utility.yul\":8939:9011   */\n      tag_219\n        /* \"#utility.yul\":9007:9009   */\n      0x20\n        /* \"#utility.yul\":8996:9005   */\n      dup4\n        /* \"#utility.yul\":8992:9010   */\n      add\n        /* \"#utility.yul\":8983:8989   */\n      dup5\n        /* \"#utility.yul\":8939:9011   */\n      tag_113\n      jump\t// in\n    tag_219:\n        /* \"#utility.yul\":8686:9018   */\n      swap4\n      swap3\n      pop\n      pop\n      pop\n      jump\t// out\n        /* \"#utility.yul\":9024:9218   */\n    tag_101:\n        /* \"#utility.yul\":9064:9068   */\n      0x00\n        /* \"#utility.yul\":9084:9104   */\n      tag_221\n        /* \"#utility.yul\":9102:9103   */\n      dup3\n        /* \"#utility.yul\":9084:9104   */\n      tag_112\n      jump\t// in\n    tag_221:\n        /* \"#utility.yul\":9079:9104   */\n      swap2\n      pop\n        /* \"#utility.yul\":9118:9138   */\n      tag_222\n        /* \"#utility.yul\":9136:9137   */\n      dup4\n        /* \"#utility.yul\":9118:9138   */\n      tag_112\n      jump\t// in\n    tag_222:\n        /* \"#utility.yul\":9113:9138   */\n      swap3\n      pop\n        /* \"#utility.yul\":9162:9163   */\n      dup3\n        /* \"#utility.yul\":9159:9160   */\n      dup3\n        /* \"#utility.yul\":9155:9164   */\n      sub\n        /* \"#utility.yul\":9147:9164   */\n      swap1\n      pop\n        /* \"#utility.yul\":9186:9187   */\n      dup2\n        /* \"#utility.yul\":9180:9184   */\n      dup2\n        /* \"#utility.yul\":9177:9188   */\n      gt\n        /* \"#utility.yul\":9174:9211   */\n      iszero\n      tag_223\n      jumpi\n        /* \"#utility.yul\":9191:9209   */\n      tag_224\n      tag_126\n      jump\t// in\n    tag_224:\n        /* \"#utility.yul\":9174:9211   */\n    tag_223:\n        /* \"#utility.yul\":9024:9218   */\n      swap3\n      swap2\n      pop\n      pop\n      jump\t// out\n\n    auxdata: 0xa2646970667358221220621afd41ead8feb5f98d7f5df2b09180e264fc041b8a0b5c3e45f88ff4fb580b64736f6c634300081e0033\n}\n",
				"bytecode": {
					"linkReferences": {},
					"object": "608060405234801561000f575f5ffd5b50604051610f60380380610f608339818101604052810190610031919061019c565b5f73ffffffffffffffffffffffffffffffffffffffff168173ffffffffffffffffffffffffffffffffffffffff160361009f576040517f08c379a000000000000000000000000000000000000000000000000000000000815260040161009690610221565b60405180910390fd5b335f5f6101000a81548173ffffffffffffffffffffffffffffffffffffffff021916908373ffffffffffffffffffffffffffffffffffffffff1602179055505f600160146101000a81548160ff0219169083151502179055508060015f6101000a81548173ffffffffffffffffffffffffffffffffffffffff021916908373ffffffffffffffffffffffffffffffffffffffff1602179055505061023f565b5f5ffd5b5f73ffffffffffffffffffffffffffffffffffffffff82169050919050565b5f61016b82610142565b9050919050565b61017b81610161565b8114610185575f5ffd5b50565b5f8151905061019681610172565b92915050565b5f602082840312156101b1576101b061013e565b5b5f6101be84828501610188565b91505092915050565b5f82825260208201905092915050565b7f496e76616c696420746f6b656e206164647265737300000000000000000000005f82015250565b5f61020b6015836101c7565b9150610216826101d7565b602082019050919050565b5f6020820190508181035f830152610238816101ff565b9050919050565b610d148061024c5f395ff3fe608060405234801561000f575f5ffd5b50600436106100cd575f3560e01c8063b187bd261161008a578063ef5d9ae811610064578063ef5d9ae8146101ed578063f357df6d1461021d578063f851a4401461024d578063fc0c546a1461026b576100cd565b8063b187bd2614610181578063bf3506c11461019f578063e362b4f7146101cf576100cd565b806316c38b3c146100d157806326a40c99146100ed578063359cf2b71461011d5780635c975abb1461012757806376697640146101455780637d26324514610163575b5f5ffd5b6100eb60048036038101906100e691906108a8565b610289565b005b6101076004803603810190610102919061092d565b61036b565b6040516101149190610970565b60405180910390f35b610125610380565b005b61012f610682565b60405161013c9190610998565b60405180910390f35b61014d610695565b60405161015a9190610970565b60405180910390f35b61016b6106a1565b6040516101789190610970565b60405180910390f35b6101896106a8565b6040516101969190610998565b60405180910390f35b6101b960048036038101906101b4919061092d565b6106be565b6040516101c69190610998565b60405180910390f35b6101d76107aa565b6040516101e49190610970565b60405180910390f35b6102076004803603810190610202919061092d565b6107b7565b6040516102149190610970565b60405180910390f35b6102376004803603810190610232919061092d565b6107cc565b6040516102449190610970565b60405180910390f35b610255610826565b60405161026291906109c0565b60405180910390f35b61027361084a565b6040516102809190610a34565b60405180910390f35b5f5f9054906101000a900473ffffffffffffffffffffffffffffffffffffffff1673ffffffffffffffffffffffffffffffffffffffff163373ffffffffffffffffffffffffffffffffffffffff1614610317576040517f08c379a000000000000000000000000000000000000000000000000000000000815260040161030e90610aa7565b60405180910390fd5b80600160146101000a81548160ff0219169083151502179055507f50cfd8deb0b293676ae69355a9eed053a00f81d3bd6a0ae4dc082629e6476f7f816040516103609190610998565b60405180910390a150565b6002602052805f5260405f205f915090505481565b600160149054906101000a900460ff16156103d0576040517f08c379a00000000000000000000000000000000000000000000000000000000081526004016103c790610b0f565b60405180910390fd5b6201518060025f3373ffffffffffffffffffffffffffffffffffffffff1673ffffffffffffffffffffffffffffffffffffffff1681526020019081526020015f205461041c9190610b5a565b42101561045e576040517f08c379a000000000000000000000000000000000000000000000000000000000815260040161045590610bd7565b60405180910390fd5b68056bc75e2d63100000670de0b6b3a764000060035f3373ffffffffffffffffffffffffffffffffffffffff1673ffffffffffffffffffffffffffffffffffffffff1681526020019081526020015f20546104b99190610b5a565b11156104fa576040517f08c379a00000000000000000000000000000000000000000000000000000000081526004016104f190610c3f565b60405180910390fd5b4260025f3373ffffffffffffffffffffffffffffffffffffffff1673ffffffffffffffffffffffffffffffffffffffff1681526020019081526020015f2081905550670de0b6b3a764000060035f3373ffffffffffffffffffffffffffffffffffffffff1673ffffffffffffffffffffffffffffffffffffffff1681526020019081526020015f205f8282546105909190610b5a565b9250508190555060015f9054906101000a900473ffffffffffffffffffffffffffffffffffffffff1673ffffffffffffffffffffffffffffffffffffffff166340c10f1933670de0b6b3a76400006040518363ffffffff1660e01b81526004016105fb929190610c5d565b5f604051808303815f87803b158015610612575f5ffd5b505af1158015610624573d5f5f3e3d5ffd5b505050503373ffffffffffffffffffffffffffffffffffffffff167f9923b4306c6c030f2bdfbf156517d5983b87e15b96176da122cd4f2effa4ba7b670de0b6b3a764000042604051610678929190610c84565b60405180910390a2565b600160149054906101000a900460ff1681565b670de0b6b3a764000081565b6201518081565b5f600160149054906101000a900460ff16905090565b5f600160149054906101000a900460ff16156106dc575f90506107a5565b6201518060025f8473ffffffffffffffffffffffffffffffffffffffff1673ffffffffffffffffffffffffffffffffffffffff1681526020019081526020015f20546107289190610b5a565b421015610737575f90506107a5565b68056bc75e2d63100000670de0b6b3a764000060035f8573ffffffffffffffffffffffffffffffffffffffff1673ffffffffffffffffffffffffffffffffffffffff1681526020019081526020015f20546107929190610b5a565b11156107a0575f90506107a5565b600190505b919050565b68056bc75e2d6310000081565b6003602052805f5260405f205f915090505481565b5f60035f8373ffffffffffffffffffffffffffffffffffffffff1673ffffffffffffffffffffffffffffffffffffffff1681526020019081526020015f205468056bc75e2d6310000061081f9190610cab565b9050919050565b5f5f9054906101000a900473ffffffffffffffffffffffffffffffffffffffff1681565b60015f9054906101000a900473ffffffffffffffffffffffffffffffffffffffff1681565b5f5ffd5b5f8115159050919050565b61088781610873565b8114610891575f5ffd5b50565b5f813590506108a28161087e565b92915050565b5f602082840312156108bd576108bc61086f565b5b5f6108ca84828501610894565b91505092915050565b5f73ffffffffffffffffffffffffffffffffffffffff82169050919050565b5f6108fc826108d3565b9050919050565b61090c816108f2565b8114610916575f5ffd5b50565b5f8135905061092781610903565b92915050565b5f602082840312156109425761094161086f565b5b5f61094f84828501610919565b91505092915050565b5f819050919050565b61096a81610958565b82525050565b5f6020820190506109835f830184610961565b92915050565b61099281610873565b82525050565b5f6020820190506109ab5f830184610989565b92915050565b6109ba816108f2565b82525050565b5f6020820190506109d35f8301846109b1565b92915050565b5f819050919050565b5f6109fc6109f76109f2846108d3565b6109d9565b6108d3565b9050919050565b5f610a0d826109e2565b9050919050565b5f610a1e82610a03565b9050919050565b610a2e81610a14565b82525050565b5f602082019050610a475f830184610a25565b92915050565b5f82825260208201905092915050565b7f4f6e6c7920617574686172697a65642062792041646d696e00000000000000005f82015250565b5f610a91601883610a4d565b9150610a9c82610a5d565b602082019050919050565b5f6020820190508181035f830152610abe81610a85565b9050919050565b7f46617563657420697320706175736564000000000000000000000000000000005f82015250565b5f610af9601083610a4d565b9150610b0482610ac5565b602082019050919050565b5f6020820190508181035f830152610b2681610aed565b9050919050565b7f4e487b71000000000000000000000000000000000000000000000000000000005f52601160045260245ffd5b5f610b6482610958565b9150610b6f83610958565b9250828201905080821115610b8757610b86610b2d565b5b92915050565b7f436f6f6c646f776e20706572696f64206e6f7420656c617073656400000000005f82015250565b5f610bc1601b83610a4d565b9150610bcc82610b8d565b602082019050919050565b5f6020820190508181035f830152610bee81610bb5565b9050919050565b7f4c69666574696d6520636c61696d206c696d69742072656163686564000000005f82015250565b5f610c29601c83610a4d565b9150610c3482610bf5565b602082019050919050565b5f6020820190508181035f830152610c5681610c1d565b9050919050565b5f604082019050610c705f8301856109b1565b610c7d6020830184610961565b9392505050565b5f604082019050610c975f830185610961565b610ca46020830184610961565b9392505050565b5f610cb582610958565b9150610cc083610958565b9250828203905081811115610cd857610cd7610b2d565b5b9291505056fea2646970667358221220621afd41ead8feb5f98d7f5df2b09180e264fc041b8a0b5c3e45f88ff4fb580b64736f6c634300081e0033",
					"opcodes": "PUSH1 0x80 PUSH1 0x40 MSTORE CALLVALUE DUP1 ISZERO PUSH2 0xF JUMPI PUSH0 PUSH0 REVERT JUMPDEST POP PUSH1 0x40 MLOAD PUSH2 0xF60 CODESIZE SUB DUP1 PUSH2 0xF60 DUP4 CODECOPY DUP2 DUP2 ADD PUSH1 0x40 MSTORE DUP2 ADD SWAP1 PUSH2 0x31 SWAP2 SWAP1 PUSH2 0x19C JUMP JUMPDEST PUSH0 PUSH20 0xFFFFFFFFFFFFFFFFFFFFFFFFFFFFFFFFFFFFFFFF AND DUP2 PUSH20 0xFFFFFFFFFFFFFFFFFFFFFFFFFFFFFFFFFFFFFFFF AND SUB PUSH2 0x9F JUMPI PUSH1 0x40 MLOAD PUSH32 0x8C379A000000000000000000000000000000000000000000000000000000000 DUP2 MSTORE PUSH1 0x4 ADD PUSH2 0x96 SWAP1 PUSH2 0x221 JUMP JUMPDEST PUSH1 0x40 MLOAD DUP1 SWAP2 SUB SWAP1 REVERT JUMPDEST CALLER PUSH0 PUSH0 PUSH2 0x100 EXP DUP2 SLOAD DUP2 PUSH20 0xFFFFFFFFFFFFFFFFFFFFFFFFFFFFFFFFFFFFFFFF MUL NOT AND SWAP1 DUP4 PUSH20 0xFFFFFFFFFFFFFFFFFFFFFFFFFFFFFFFFFFFFFFFF AND MUL OR SWAP1 SSTORE POP PUSH0 PUSH1 0x1 PUSH1 0x14 PUSH2 0x100 EXP DUP2 SLOAD DUP2 PUSH1 0xFF MUL NOT AND SWAP1 DUP4 ISZERO ISZERO MUL OR SWAP1 SSTORE POP DUP1 PUSH1 0x1 PUSH0 PUSH2 0x100 EXP DUP2 SLOAD DUP2 PUSH20 0xFFFFFFFFFFFFFFFFFFFFFFFFFFFFFFFFFFFFFFFF MUL NOT AND SWAP1 DUP4 PUSH20 0xFFFFFFFFFFFFFFFFFFFFFFFFFFFFFFFFFFFFFFFF AND MUL OR SWAP1 SSTORE POP POP PUSH2 0x23F JUMP JUMPDEST PUSH0 PUSH0 REVERT JUMPDEST PUSH0 PUSH20 0xFFFFFFFFFFFFFFFFFFFFFFFFFFFFFFFFFFFFFFFF DUP3 AND SWAP1 POP SWAP2 SWAP1 POP JUMP JUMPDEST PUSH0 PUSH2 0x16B DUP3 PUSH2 0x142 JUMP JUMPDEST SWAP1 POP SWAP2 SWAP1 POP JUMP JUMPDEST PUSH2 0x17B DUP2 PUSH2 0x161 JUMP JUMPDEST DUP2 EQ PUSH2 0x185 JUMPI PUSH0 PUSH0 REVERT JUMPDEST POP JUMP JUMPDEST PUSH0 DUP2 MLOAD SWAP1 POP PUSH2 0x196 DUP2 PUSH2 0x172 JUMP JUMPDEST SWAP3 SWAP2 POP POP JUMP JUMPDEST PUSH0 PUSH1 0x20 DUP3 DUP5 SUB SLT ISZERO PUSH2 0x1B1 JUMPI PUSH2 0x1B0 PUSH2 0x13E JUMP JUMPDEST JUMPDEST PUSH0 PUSH2 0x1BE DUP5 DUP3 DUP6 ADD PUSH2 0x188 JUMP JUMPDEST SWAP2 POP POP SWAP3 SWAP2 POP POP JUMP JUMPDEST PUSH0 DUP3 DUP3 MSTORE PUSH1 0x20 DUP3 ADD SWAP1 POP SWAP3 SWAP2 POP POP JUMP JUMPDEST PUSH32 0x496E76616C696420746F6B656E20616464726573730000000000000000000000 PUSH0 DUP3 ADD MSTORE POP JUMP JUMPDEST PUSH0 PUSH2 0x20B PUSH1 0x15 DUP4 PUSH2 0x1C7 JUMP JUMPDEST SWAP2 POP PUSH2 0x216 DUP3 PUSH2 0x1D7 JUMP JUMPDEST PUSH1 0x20 DUP3 ADD SWAP1 POP SWAP2 SWAP1 POP JUMP JUMPDEST PUSH0 PUSH1 0x20 DUP3 ADD SWAP1 POP DUP2 DUP2 SUB PUSH0 DUP4 ADD MSTORE PUSH2 0x238 DUP2 PUSH2 0x1FF JUMP JUMPDEST SWAP1 POP SWAP2 SWAP1 POP JUMP JUMPDEST PUSH2 0xD14 DUP1 PUSH2 0x24C PUSH0 CODECOPY PUSH0 RETURN INVALID PUSH1 0x80 PUSH1 0x40 MSTORE CALLVALUE DUP1 ISZERO PUSH2 0xF JUMPI PUSH0 PUSH0 REVERT JUMPDEST POP PUSH1 0x4 CALLDATASIZE LT PUSH2 0xCD JUMPI PUSH0 CALLDATALOAD PUSH1 0xE0 SHR DUP1 PUSH4 0xB187BD26 GT PUSH2 0x8A JUMPI DUP1 PUSH4 0xEF5D9AE8 GT PUSH2 0x64 JUMPI DUP1 PUSH4 0xEF5D9AE8 EQ PUSH2 0x1ED JUMPI DUP1 PUSH4 0xF357DF6D EQ PUSH2 0x21D JUMPI DUP1 PUSH4 0xF851A440 EQ PUSH2 0x24D JUMPI DUP1 PUSH4 0xFC0C546A EQ PUSH2 0x26B JUMPI PUSH2 0xCD JUMP JUMPDEST DUP1 PUSH4 0xB187BD26 EQ PUSH2 0x181 JUMPI DUP1 PUSH4 0xBF3506C1 EQ PUSH2 0x19F JUMPI DUP1 PUSH4 0xE362B4F7 EQ PUSH2 0x1CF JUMPI PUSH2 0xCD JUMP JUMPDEST DUP1 PUSH4 0x16C38B3C EQ PUSH2 0xD1 JUMPI DUP1 PUSH4 0x26A40C99 EQ PUSH2 0xED JUMPI DUP1 PUSH4 0x359CF2B7 EQ PUSH2 0x11D JUMPI DUP1 PUSH4 0x5C975ABB EQ PUSH2 0x127 JUMPI DUP1 PUSH4 0x76697640 EQ PUSH2 0x145 JUMPI DUP1 PUSH4 0x7D263245 EQ PUSH2 0x163 JUMPI JUMPDEST PUSH0 PUSH0 REVERT JUMPDEST PUSH2 0xEB PUSH1 0x4 DUP1 CALLDATASIZE SUB DUP2 ADD SWAP1 PUSH2 0xE6 SWAP2 SWAP1 PUSH2 0x8A8 JUMP JUMPDEST PUSH2 0x289 JUMP JUMPDEST STOP JUMPDEST PUSH2 0x107 PUSH1 0x4 DUP1 CALLDATASIZE SUB DUP2 ADD SWAP1 PUSH2 0x102 SWAP2 SWAP1 PUSH2 0x92D JUMP JUMPDEST PUSH2 0x36B JUMP JUMPDEST PUSH1 0x40 MLOAD PUSH2 0x114 SWAP2 SWAP1 PUSH2 0x970 JUMP JUMPDEST PUSH1 0x40 MLOAD DUP1 SWAP2 SUB SWAP1 RETURN JUMPDEST PUSH2 0x125 PUSH2 0x380 JUMP JUMPDEST STOP JUMPDEST PUSH2 0x12F PUSH2 0x682 JUMP JUMPDEST PUSH1 0x40 MLOAD PUSH2 0x13C SWAP2 SWAP1 PUSH2 0x998 JUMP JUMPDEST PUSH1 0x40 MLOAD DUP1 SWAP2 SUB SWAP1 RETURN JUMPDEST PUSH2 0x14D PUSH2 0x695 JUMP JUMPDEST PUSH1 0x40 MLOAD PUSH2 0x15A SWAP2 SWAP1 PUSH2 0x970 JUMP JUMPDEST PUSH1 0x40 MLOAD DUP1 SWAP2 SUB SWAP1 RETURN JUMPDEST PUSH2 0x16B PUSH2 0x6A1 JUMP JUMPDEST PUSH1 0x40 MLOAD PUSH2 0x178 SWAP2 SWAP1 PUSH2 0x970 JUMP JUMPDEST PUSH1 0x40 MLOAD DUP1 SWAP2 SUB SWAP1 RETURN JUMPDEST PUSH2 0x189 PUSH2 0x6A8 JUMP JUMPDEST PUSH1 0x40 MLOAD PUSH2 0x196 SWAP2 SWAP1 PUSH2 0x998 JUMP JUMPDEST PUSH1 0x40 MLOAD DUP1 SWAP2 SUB SWAP1 RETURN JUMPDEST PUSH2 0x1B9 PUSH1 0x4 DUP1 CALLDATASIZE SUB DUP2 ADD SWAP1 PUSH2 0x1B4 SWAP2 SWAP1 PUSH2 0x92D JUMP JUMPDEST PUSH2 0x6BE JUMP JUMPDEST PUSH1 0x40 MLOAD PUSH2 0x1C6 SWAP2 SWAP1 PUSH2 0x998 JUMP JUMPDEST PUSH1 0x40 MLOAD DUP1 SWAP2 SUB SWAP1 RETURN JUMPDEST PUSH2 0x1D7 PUSH2 0x7AA JUMP JUMPDEST PUSH1 0x40 MLOAD PUSH2 0x1E4 SWAP2 SWAP1 PUSH2 0x970 JUMP JUMPDEST PUSH1 0x40 MLOAD DUP1 SWAP2 SUB SWAP1 RETURN JUMPDEST PUSH2 0x207 PUSH1 0x4 DUP1 CALLDATASIZE SUB DUP2 ADD SWAP1 PUSH2 0x202 SWAP2 SWAP1 PUSH2 0x92D JUMP JUMPDEST PUSH2 0x7B7 JUMP JUMPDEST PUSH1 0x40 MLOAD PUSH2 0x214 SWAP2 SWAP1 PUSH2 0x970 JUMP JUMPDEST PUSH1 0x40 MLOAD DUP1 SWAP2 SUB SWAP1 RETURN JUMPDEST PUSH2 0x237 PUSH1 0x4 DUP1 CALLDATASIZE SUB DUP2 ADD SWAP1 PUSH2 0x232 SWAP2 SWAP1 PUSH2 0x92D JUMP JUMPDEST PUSH2 0x7CC JUMP JUMPDEST PUSH1 0x40 MLOAD PUSH2 0x244 SWAP2 SWAP1 PUSH2 0x970 JUMP JUMPDEST PUSH1 0x40 MLOAD DUP1 SWAP2 SUB SWAP1 RETURN JUMPDEST PUSH2 0x255 PUSH2 0x826 JUMP JUMPDEST PUSH1 0x40 MLOAD PUSH2 0x262 SWAP2 SWAP1 PUSH2 0x9C0 JUMP JUMPDEST PUSH1 0x40 MLOAD DUP1 SWAP2 SUB SWAP1 RETURN JUMPDEST PUSH2 0x273 PUSH2 0x84A JUMP JUMPDEST PUSH1 0x40 MLOAD PUSH2 0x280 SWAP2 SWAP1 PUSH2 0xA34 JUMP JUMPDEST PUSH1 0x40 MLOAD DUP1 SWAP2 SUB SWAP1 RETURN JUMPDEST PUSH0 PUSH0 SWAP1 SLOAD SWAP1 PUSH2 0x100 EXP SWAP1 DIV PUSH20 0xFFFFFFFFFFFFFFFFFFFFFFFFFFFFFFFFFFFFFFFF AND PUSH20 0xFFFFFFFFFFFFFFFFFFFFFFFFFFFFFFFFFFFFFFFF AND CALLER PUSH20 0xFFFFFFFFFFFFFFFFFFFFFFFFFFFFFFFFFFFFFFFF AND EQ PUSH2 0x317 JUMPI PUSH1 0x40 MLOAD PUSH32 0x8C379A000000000000000000000000000000000000000000000000000000000 DUP2 MSTORE PUSH1 0x4 ADD PUSH2 0x30E SWAP1 PUSH2 0xAA7 JUMP JUMPDEST PUSH1 0x40 MLOAD DUP1 SWAP2 SUB SWAP1 REVERT JUMPDEST DUP1 PUSH1 0x1 PUSH1 0x14 PUSH2 0x100 EXP DUP2 SLOAD DUP2 PUSH1 0xFF MUL NOT AND SWAP1 DUP4 ISZERO ISZERO MUL OR SWAP1 SSTORE POP PUSH32 0x50CFD8DEB0B293676AE69355A9EED053A00F81D3BD6A0AE4DC082629E6476F7F DUP2 PUSH1 0x40 MLOAD PUSH2 0x360 SWAP2 SWAP1 PUSH2 0x998 JUMP JUMPDEST PUSH1 0x40 MLOAD DUP1 SWAP2 SUB SWAP1 LOG1 POP JUMP JUMPDEST PUSH1 0x2 PUSH1 0x20 MSTORE DUP1 PUSH0 MSTORE PUSH1 0x40 PUSH0 KECCAK256 PUSH0 SWAP2 POP SWAP1 POP SLOAD DUP2 JUMP JUMPDEST PUSH1 0x1 PUSH1 0x14 SWAP1 SLOAD SWAP1 PUSH2 0x100 EXP SWAP1 DIV PUSH1 0xFF AND ISZERO PUSH2 0x3D0 JUMPI PUSH1 0x40 MLOAD PUSH32 0x8C379A000000000000000000000000000000000000000000000000000000000 DUP2 MSTORE PUSH1 0x4 ADD PUSH2 0x3C7 SWAP1 PUSH2 0xB0F JUMP JUMPDEST PUSH1 0x40 MLOAD DUP1 SWAP2 SUB SWAP1 REVERT JUMPDEST PUSH3 0x15180 PUSH1 0x2 PUSH0 CALLER PUSH20 0xFFFFFFFFFFFFFFFFFFFFFFFFFFFFFFFFFFFFFFFF AND PUSH20 0xFFFFFFFFFFFFFFFFFFFFFFFFFFFFFFFFFFFFFFFF AND DUP2 MSTORE PUSH1 0x20 ADD SWAP1 DUP2 MSTORE PUSH1 0x20 ADD PUSH0 KECCAK256 SLOAD PUSH2 0x41C SWAP2 SWAP1 PUSH2 0xB5A JUMP JUMPDEST TIMESTAMP LT ISZERO PUSH2 0x45E JUMPI PUSH1 0x40 MLOAD PUSH32 0x8C379A000000000000000000000000000000000000000000000000000000000 DUP2 MSTORE PUSH1 0x4 ADD PUSH2 0x455 SWAP1 PUSH2 0xBD7 JUMP JUMPDEST PUSH1 0x40 MLOAD DUP1 SWAP2 SUB SWAP1 REVERT JUMPDEST PUSH9 0x56BC75E2D63100000 PUSH8 0xDE0B6B3A7640000 PUSH1 0x3 PUSH0 CALLER PUSH20 0xFFFFFFFFFFFFFFFFFFFFFFFFFFFFFFFFFFFFFFFF AND PUSH20 0xFFFFFFFFFFFFFFFFFFFFFFFFFFFFFFFFFFFFFFFF AND DUP2 MSTORE PUSH1 0x20 ADD SWAP1 DUP2 MSTORE PUSH1 0x20 ADD PUSH0 KECCAK256 SLOAD PUSH2 0x4B9 SWAP2 SWAP1 PUSH2 0xB5A JUMP JUMPDEST GT ISZERO PUSH2 0x4FA JUMPI PUSH1 0x40 MLOAD PUSH32 0x8C379A000000000000000000000000000000000000000000000000000000000 DUP2 MSTORE PUSH1 0x4 ADD PUSH2 0x4F1 SWAP1 PUSH2 0xC3F JUMP JUMPDEST PUSH1 0x40 MLOAD DUP1 SWAP2 SUB SWAP1 REVERT JUMPDEST TIMESTAMP PUSH1 0x2 PUSH0 CALLER PUSH20 0xFFFFFFFFFFFFFFFFFFFFFFFFFFFFFFFFFFFFFFFF AND PUSH20 0xFFFFFFFFFFFFFFFFFFFFFFFFFFFFFFFFFFFFFFFF AND DUP2 MSTORE PUSH1 0x20 ADD SWAP1 DUP2 MSTORE PUSH1 0x20 ADD PUSH0 KECCAK256 DUP2 SWAP1 SSTORE POP PUSH8 0xDE0B6B3A7640000 PUSH1 0x3 PUSH0 CALLER PUSH20 0xFFFFFFFFFFFFFFFFFFFFFFFFFFFFFFFFFFFFFFFF AND PUSH20 0xFFFFFFFFFFFFFFFFFFFFFFFFFFFFFFFFFFFFFFFF AND DUP2 MSTORE PUSH1 0x20 ADD SWAP1 DUP2 MSTORE PUSH1 0x20 ADD PUSH0 KECCAK256 PUSH0 DUP3 DUP3 SLOAD PUSH2 0x590 SWAP2 SWAP1 PUSH2 0xB5A JUMP JUMPDEST SWAP3 POP POP DUP2 SWAP1 SSTORE POP PUSH1 0x1 PUSH0 SWAP1 SLOAD SWAP1 PUSH2 0x100 EXP SWAP1 DIV PUSH20 0xFFFFFFFFFFFFFFFFFFFFFFFFFFFFFFFFFFFFFFFF AND PUSH20 0xFFFFFFFFFFFFFFFFFFFFFFFFFFFFFFFFFFFFFFFF AND PUSH4 0x40C10F19 CALLER PUSH8 0xDE0B6B3A7640000 PUSH1 0x40 MLOAD DUP4 PUSH4 0xFFFFFFFF AND PUSH1 0xE0 SHL DUP2 MSTORE PUSH1 0x4 ADD PUSH2 0x5FB SWAP3 SWAP2 SWAP1 PUSH2 0xC5D JUMP JUMPDEST PUSH0 PUSH1 0x40 MLOAD DUP1 DUP4 SUB DUP2 PUSH0 DUP8 DUP1 EXTCODESIZE ISZERO DUP1 ISZERO PUSH2 0x612 JUMPI PUSH0 PUSH0 REVERT JUMPDEST POP GAS CALL ISZERO DUP1 ISZERO PUSH2 0x624 JUMPI RETURNDATASIZE PUSH0 PUSH0 RETURNDATACOPY RETURNDATASIZE PUSH0 REVERT JUMPDEST POP POP POP POP CALLER PUSH20 0xFFFFFFFFFFFFFFFFFFFFFFFFFFFFFFFFFFFFFFFF AND PUSH32 0x9923B4306C6C030F2BDFBF156517D5983B87E15B96176DA122CD4F2EFFA4BA7B PUSH8 0xDE0B6B3A7640000 TIMESTAMP PUSH1 0x40 MLOAD PUSH2 0x678 SWAP3 SWAP2 SWAP1 PUSH2 0xC84 JUMP JUMPDEST PUSH1 0x40 MLOAD DUP1 SWAP2 SUB SWAP1 LOG2 JUMP JUMPDEST PUSH1 0x1 PUSH1 0x14 SWAP1 SLOAD SWAP1 PUSH2 0x100 EXP SWAP1 DIV PUSH1 0xFF AND DUP2 JUMP JUMPDEST PUSH8 0xDE0B6B3A7640000 DUP2 JUMP JUMPDEST PUSH3 0x15180 DUP2 JUMP JUMPDEST PUSH0 PUSH1 0x1 PUSH1 0x14 SWAP1 SLOAD SWAP1 PUSH2 0x100 EXP SWAP1 DIV PUSH1 0xFF AND SWAP1 POP SWAP1 JUMP JUMPDEST PUSH0 PUSH1 0x1 PUSH1 0x14 SWAP1 SLOAD SWAP1 PUSH2 0x100 EXP SWAP1 DIV PUSH1 0xFF AND ISZERO PUSH2 0x6DC JUMPI PUSH0 SWAP1 POP PUSH2 0x7A5 JUMP JUMPDEST PUSH3 0x15180 PUSH1 0x2 PUSH0 DUP5 PUSH20 0xFFFFFFFFFFFFFFFFFFFFFFFFFFFFFFFFFFFFFFFF AND PUSH20 0xFFFFFFFFFFFFFFFFFFFFFFFFFFFFFFFFFFFFFFFF AND DUP2 MSTORE PUSH1 0x20 ADD SWAP1 DUP2 MSTORE PUSH1 0x20 ADD PUSH0 KECCAK256 SLOAD PUSH2 0x728 SWAP2 SWAP1 PUSH2 0xB5A JUMP JUMPDEST TIMESTAMP LT ISZERO PUSH2 0x737 JUMPI PUSH0 SWAP1 POP PUSH2 0x7A5 JUMP JUMPDEST PUSH9 0x56BC75E2D63100000 PUSH8 0xDE0B6B3A7640000 PUSH1 0x3 PUSH0 DUP6 PUSH20 0xFFFFFFFFFFFFFFFFFFFFFFFFFFFFFFFFFFFFFFFF AND PUSH20 0xFFFFFFFFFFFFFFFFFFFFFFFFFFFFFFFFFFFFFFFF AND DUP2 MSTORE PUSH1 0x20 ADD SWAP1 DUP2 MSTORE PUSH1 0x20 ADD PUSH0 KECCAK256 SLOAD PUSH2 0x792 SWAP2 SWAP1 PUSH2 0xB5A JUMP JUMPDEST GT ISZERO PUSH2 0x7A0 JUMPI PUSH0 SWAP1 POP PUSH2 0x7A5 JUMP JUMPDEST PUSH1 0x1 SWAP1 POP JUMPDEST SWAP2 SWAP1 POP JUMP JUMPDEST PUSH9 0x56BC75E2D63100000 DUP2 JUMP JUMPDEST PUSH1 0x3 PUSH1 0x20 MSTORE DUP1 PUSH0 MSTORE PUSH1 0x40 PUSH0 KECCAK256 PUSH0 SWAP2 POP SWAP1 POP SLOAD DUP2 JUMP JUMPDEST PUSH0 PUSH1 0x3 PUSH0 DUP4 PUSH20 0xFFFFFFFFFFFFFFFFFFFFFFFFFFFFFFFFFFFFFFFF AND PUSH20 0xFFFFFFFFFFFFFFFFFFFFFFFFFFFFFFFFFFFFFFFF AND DUP2 MSTORE PUSH1 0x20 ADD SWAP1 DUP2 MSTORE PUSH1 0x20 ADD PUSH0 KECCAK256 SLOAD PUSH9 0x56BC75E2D63100000 PUSH2 0x81F SWAP2 SWAP1 PUSH2 0xCAB JUMP JUMPDEST SWAP1 POP SWAP2 SWAP1 POP JUMP JUMPDEST PUSH0 PUSH0 SWAP1 SLOAD SWAP1 PUSH2 0x100 EXP SWAP1 DIV PUSH20 0xFFFFFFFFFFFFFFFFFFFFFFFFFFFFFFFFFFFFFFFF AND DUP2 JUMP JUMPDEST PUSH1 0x1 PUSH0 SWAP1 SLOAD SWAP1 PUSH2 0x100 EXP SWAP1 DIV PUSH20 0xFFFFFFFFFFFFFFFFFFFFFFFFFFFFFFFFFFFFFFFF AND DUP2 JUMP JUMPDEST PUSH0 PUSH0 REVERT JUMPDEST PUSH0 DUP2 ISZERO ISZERO SWAP1 POP SWAP2 SWAP1 POP JUMP JUMPDEST PUSH2 0x887 DUP2 PUSH2 0x873 JUMP JUMPDEST DUP2 EQ PUSH2 0x891 JUMPI PUSH0 PUSH0 REVERT JUMPDEST POP JUMP JUMPDEST PUSH0 DUP2 CALLDATALOAD SWAP1 POP PUSH2 0x8A2 DUP2 PUSH2 0x87E JUMP JUMPDEST SWAP3 SWAP2 POP POP JUMP JUMPDEST PUSH0 PUSH1 0x20 DUP3 DUP5 SUB SLT ISZERO PUSH2 0x8BD JUMPI PUSH2 0x8BC PUSH2 0x86F JUMP JUMPDEST JUMPDEST PUSH0 PUSH2 0x8CA DUP5 DUP3 DUP6 ADD PUSH2 0x894 JUMP JUMPDEST SWAP2 POP POP SWAP3 SWAP2 POP POP JUMP JUMPDEST PUSH0 PUSH20 0xFFFFFFFFFFFFFFFFFFFFFFFFFFFFFFFFFFFFFFFF DUP3 AND SWAP1 POP SWAP2 SWAP1 POP JUMP JUMPDEST PUSH0 PUSH2 0x8FC DUP3 PUSH2 0x8D3 JUMP JUMPDEST SWAP1 POP SWAP2 SWAP1 POP JUMP JUMPDEST PUSH2 0x90C DUP2 PUSH2 0x8F2 JUMP JUMPDEST DUP2 EQ PUSH2 0x916 JUMPI PUSH0 PUSH0 REVERT JUMPDEST POP JUMP JUMPDEST PUSH0 DUP2 CALLDATALOAD SWAP1 POP PUSH2 0x927 DUP2 PUSH2 0x903 JUMP JUMPDEST SWAP3 SWAP2 POP POP JUMP JUMPDEST PUSH0 PUSH1 0x20 DUP3 DUP5 SUB SLT ISZERO PUSH2 0x942 JUMPI PUSH2 0x941 PUSH2 0x86F JUMP JUMPDEST JUMPDEST PUSH0 PUSH2 0x94F DUP5 DUP3 DUP6 ADD PUSH2 0x919 JUMP JUMPDEST SWAP2 POP POP SWAP3 SWAP2 POP POP JUMP JUMPDEST PUSH0 DUP2 SWAP1 POP SWAP2 SWAP1 POP JUMP JUMPDEST PUSH2 0x96A DUP2 PUSH2 0x958 JUMP JUMPDEST DUP3 MSTORE POP POP JUMP JUMPDEST PUSH0 PUSH1 0x20 DUP3 ADD SWAP1 POP PUSH2 0x983 PUSH0 DUP4 ADD DUP5 PUSH2 0x961 JUMP JUMPDEST SWAP3 SWAP2 POP POP JUMP JUMPDEST PUSH2 0x992 DUP2 PUSH2 0x873 JUMP JUMPDEST DUP3 MSTORE POP POP JUMP JUMPDEST PUSH0 PUSH1 0x20 DUP3 ADD SWAP1 POP PUSH2 0x9AB PUSH0 DUP4 ADD DUP5 PUSH2 0x989 JUMP JUMPDEST SWAP3 SWAP2 POP POP JUMP JUMPDEST PUSH2 0x9BA DUP2 PUSH2 0x8F2 JUMP JUMPDEST DUP3 MSTORE POP POP JUMP JUMPDEST PUSH0 PUSH1 0x20 DUP3 ADD SWAP1 POP PUSH2 0x9D3 PUSH0 DUP4 ADD DUP5 PUSH2 0x9B1 JUMP JUMPDEST SWAP3 SWAP2 POP POP JUMP JUMPDEST PUSH0 DUP2 SWAP1 POP SWAP2 SWAP1 POP JUMP JUMPDEST PUSH0 PUSH2 0x9FC PUSH2 0x9F7 PUSH2 0x9F2 DUP5 PUSH2 0x8D3 JUMP JUMPDEST PUSH2 0x9D9 JUMP JUMPDEST PUSH2 0x8D3 JUMP JUMPDEST SWAP1 POP SWAP2 SWAP1 POP JUMP JUMPDEST PUSH0 PUSH2 0xA0D DUP3 PUSH2 0x9E2 JUMP JUMPDEST SWAP1 POP SWAP2 SWAP1 POP JUMP JUMPDEST PUSH0 PUSH2 0xA1E DUP3 PUSH2 0xA03 JUMP JUMPDEST SWAP1 POP SWAP2 SWAP1 POP JUMP JUMPDEST PUSH2 0xA2E DUP2 PUSH2 0xA14 JUMP JUMPDEST DUP3 MSTORE POP POP JUMP JUMPDEST PUSH0 PUSH1 0x20 DUP3 ADD SWAP1 POP PUSH2 0xA47 PUSH0 DUP4 ADD DUP5 PUSH2 0xA25 JUMP JUMPDEST SWAP3 SWAP2 POP POP JUMP JUMPDEST PUSH0 DUP3 DUP3 MSTORE PUSH1 0x20 DUP3 ADD SWAP1 POP SWAP3 SWAP2 POP POP JUMP JUMPDEST PUSH32 0x4F6E6C7920617574686172697A65642062792041646D696E0000000000000000 PUSH0 DUP3 ADD MSTORE POP JUMP JUMPDEST PUSH0 PUSH2 0xA91 PUSH1 0x18 DUP4 PUSH2 0xA4D JUMP JUMPDEST SWAP2 POP PUSH2 0xA9C DUP3 PUSH2 0xA5D JUMP JUMPDEST PUSH1 0x20 DUP3 ADD SWAP1 POP SWAP2 SWAP1 POP JUMP JUMPDEST PUSH0 PUSH1 0x20 DUP3 ADD SWAP1 POP DUP2 DUP2 SUB PUSH0 DUP4 ADD MSTORE PUSH2 0xABE DUP2 PUSH2 0xA85 JUMP JUMPDEST SWAP1 POP SWAP2 SWAP1 POP JUMP JUMPDEST PUSH32 0x4661756365742069732070617573656400000000000000000000000000000000 PUSH0 DUP3 ADD MSTORE POP JUMP JUMPDEST PUSH0 PUSH2 0xAF9 PUSH1 0x10 DUP4 PUSH2 0xA4D JUMP JUMPDEST SWAP2 POP PUSH2 0xB04 DUP3 PUSH2 0xAC5 JUMP JUMPDEST PUSH1 0x20 DUP3 ADD SWAP1 POP SWAP2 SWAP1 POP JUMP JUMPDEST PUSH0 PUSH1 0x20 DUP3 ADD SWAP1 POP DUP2 DUP2 SUB PUSH0 DUP4 ADD MSTORE PUSH2 0xB26 DUP2 PUSH2 0xAED JUMP JUMPDEST SWAP1 POP SWAP2 SWAP1 POP JUMP JUMPDEST PUSH32 0x4E487B7100000000000000000000000000000000000000000000000000000000 PUSH0 MSTORE PUSH1 0x11 PUSH1 0x4 MSTORE PUSH1 0x24 PUSH0 REVERT JUMPDEST PUSH0 PUSH2 0xB64 DUP3 PUSH2 0x958 JUMP JUMPDEST SWAP2 POP PUSH2 0xB6F DUP4 PUSH2 0x958 JUMP JUMPDEST SWAP3 POP DUP3 DUP3 ADD SWAP1 POP DUP1 DUP3 GT ISZERO PUSH2 0xB87 JUMPI PUSH2 0xB86 PUSH2 0xB2D JUMP JUMPDEST JUMPDEST SWAP3 SWAP2 POP POP JUMP JUMPDEST PUSH32 0x436F6F6C646F776E20706572696F64206E6F7420656C61707365640000000000 PUSH0 DUP3 ADD MSTORE POP JUMP JUMPDEST PUSH0 PUSH2 0xBC1 PUSH1 0x1B DUP4 PUSH2 0xA4D JUMP JUMPDEST SWAP2 POP PUSH2 0xBCC DUP3 PUSH2 0xB8D JUMP JUMPDEST PUSH1 0x20 DUP3 ADD SWAP1 POP SWAP2 SWAP1 POP JUMP JUMPDEST PUSH0 PUSH1 0x20 DUP3 ADD SWAP1 POP DUP2 DUP2 SUB PUSH0 DUP4 ADD MSTORE PUSH2 0xBEE DUP2 PUSH2 0xBB5 JUMP JUMPDEST SWAP1 POP SWAP2 SWAP1 POP JUMP JUMPDEST PUSH32 0x4C69666574696D6520636C61696D206C696D6974207265616368656400000000 PUSH0 DUP3 ADD MSTORE POP JUMP JUMPDEST PUSH0 PUSH2 0xC29 PUSH1 0x1C DUP4 PUSH2 0xA4D JUMP JUMPDEST SWAP2 POP PUSH2 0xC34 DUP3 PUSH2 0xBF5 JUMP JUMPDEST PUSH1 0x20 DUP3 ADD SWAP1 POP SWAP2 SWAP1 POP JUMP JUMPDEST PUSH0 PUSH1 0x20 DUP3 ADD SWAP1 POP DUP2 DUP2 SUB PUSH0 DUP4 ADD MSTORE PUSH2 0xC56 DUP2 PUSH2 0xC1D JUMP JUMPDEST SWAP1 POP SWAP2 SWAP1 POP JUMP JUMPDEST PUSH0 PUSH1 0x40 DUP3 ADD SWAP1 POP PUSH2 0xC70 PUSH0 DUP4 ADD DUP6 PUSH2 0x9B1 JUMP JUMPDEST PUSH2 0xC7D PUSH1 0x20 DUP4 ADD DUP5 PUSH2 0x961 JUMP JUMPDEST SWAP4 SWAP3 POP POP POP JUMP JUMPDEST PUSH0 PUSH1 0x40 DUP3 ADD SWAP1 POP PUSH2 0xC97 PUSH0 DUP4 ADD DUP6 PUSH2 0x961 JUMP JUMPDEST PUSH2 0xCA4 PUSH1 0x20 DUP4 ADD DUP5 PUSH2 0x961 JUMP JUMPDEST SWAP4 SWAP3 POP POP POP JUMP JUMPDEST PUSH0 PUSH2 0xCB5 DUP3 PUSH2 0x958 JUMP JUMPDEST SWAP2 POP PUSH2 0xCC0 DUP4 PUSH2 0x958 JUMP JUMPDEST SWAP3 POP DUP3 DUP3 SUB SWAP1 POP DUP2 DUP2 GT ISZERO PUSH2 0xCD8 JUMPI PUSH2 0xCD7 PUSH2 0xB2D JUMP JUMPDEST JUMPDEST SWAP3 SWAP2 POP POP JUMP INVALID LOG2 PUSH5 0x6970667358 0x22 SLT KECCAK256 PUSH3 0x1AFD41 0xEA 0xD8 INVALID 0xB5 EXTDELEGATECALL DUP14 PUSH32 0x5DF2B09180E264FC041B8A0B5C3E45F88FF4FB580B64736F6C634300081E0033 "
				},
				"gasEstimates": {
					"creation": {
						"codeDepositCost": "669600",
						"executionCost": "infinite",
						"totalCost": "infinite"
					},
					"external": {
						"COOLDOWN_TIME()": "436",
						"FAUCET_AMOUNT()": "414",
						"MAX_CLAIM_AMOUNT()": "392",
						"admin()": "2573",
						"canClaim(address)": "infinite",
						"isPaused()": "2547",
						"lastClaimedAt(address)": "2825",
						"paused()": "2584",
						"remainingAllowance(address)": "infinite",
						"requestTokens()": "infinite",
						"setPaused(bool)": "infinite",
						"token()": "infinite",
						"totalClaimed(address)": "2824"
					}
				},
				"methodIdentifiers": {
					"COOLDOWN_TIME()": "7d263245",
					"FAUCET_AMOUNT()": "76697640",
					"MAX_CLAIM_AMOUNT()": "e362b4f7",
					"admin()": "f851a440",
					"canClaim(address)": "bf3506c1",
					"isPaused()": "b187bd26",
					"lastClaimedAt(address)": "26a40c99",
					"paused()": "5c975abb",
					"remainingAllowance(address)": "f357df6d",
					"requestTokens()": "359cf2b7",
					"setPaused(bool)": "16c38b3c",
					"token()": "fc0c546a",
					"totalClaimed(address)": "ef5d9ae8"
				}
			},
			"storageLayout": {
				"storage": [
					{
						"astId": 31,
						"contract": "contracts/TokenFaucet.sol:TokenFaucet",
						"label": "admin",
						"offset": 0,
						"slot": "0",
						"type": "t_address"
					},
					{
						"astId": 34,
						"contract": "contracts/TokenFaucet.sol:TokenFaucet",
						"label": "token",
						"offset": 0,
						"slot": "1",
						"type": "t_contract(IToken)9"
					},
					{
						"astId": 36,
						"contract": "contracts/TokenFaucet.sol:TokenFaucet",
						"label": "paused",
						"offset": 20,
						"slot": "1",
						"type": "t_bool"
					},
					{
						"astId": 40,
						"contract": "contracts/TokenFaucet.sol:TokenFaucet",
						"label": "lastClaimedAt",
						"offset": 0,
						"slot": "2",
						"type": "t_mapping(t_address,t_uint256)"
					},
					{
						"astId": 44,
						"contract": "contracts/TokenFaucet.sol:TokenFaucet",
						"label": "totalClaimed",
						"offset": 0,
						"slot": "3",
						"type": "t_mapping(t_address,t_uint256)"
					}
				],
				"types": {
					"t_address": {
						"encoding": "inplace",
						"label": "address",
						"numberOfBytes": "20"
					},
					"t_bool": {
						"encoding": "inplace",
						"label": "bool",
						"numberOfBytes": "1"
					},
					"t_contract(IToken)9": {
						"encoding": "inplace",
						"label": "contract IToken",
						"numberOfBytes": "20"
					},
					"t_mapping(t_address,t_uint256)": {
						"encoding": "mapping",
						"key": "t_address",
						"label": "mapping(address => uint256)",
						"numberOfBytes": "32",
						"value": "t_uint256"
					},
					"t_uint256": {
						"encoding": "inplace",
						"label": "uint256",
						"numberOfBytes": "32"
					}
				}
			},
			"userdoc": {
				"kind": "user",
				"methods": {},
				"version": 1
			}
		}
	}
}