{"abi":[{"type":"constructor","inputs":[{"name":"_initialOwner","type":"address","internalType":"address"}],"stateMutability":"nonpayable"},{"type":"function","name":"TOTAL_SUPPLY","inputs":[],"outputs":[{"name":"","type":"uint256","internalType":"uint256"}],"stateMutability":"view"},{"type":"function","name":"allowance","inputs":[{"name":"owner","type":"address","internalType":"address"},{"name":"spender","type":"address","internalType":"address"}],"outputs":[{"name":"","type":"uint256","internalType":"uint256"}],"stateMutability":"view"},{"type":"function","name":"approve","inputs":[{"name":"spender","type":"address","internalType":"address"},{"name":"value","type":"uint256","internalType":"uint256"}],"outputs":[{"name":"","type":"bool","internalType":"bool"}],"stateMutability":"nonpayable"},{"type":"function","name":"balanceOf","inputs":[{"name":"account","type":"address","internalType":"address"}],"outputs":[{"name":"","type":"uint256","internalType":"uint256"}],"stateMutability":"view"},{"type":"function","name":"decimals","inputs":[],"outputs":[{"name":"","type":"uint8","internalType":"uint8"}],"stateMutability":"view"},{"type":"function","name":"mint","inputs":[{"name":"to","type":"address","internalType":"address"},{"name":"amount","type":"uint256","internalType":"uint256"}],"outputs":[],"stateMutability":"nonpayable"},{"type":"function","name":"minter","inputs":[],"outputs":[{"name":"","type":"address","internalType":"address"}],"stateMutability":"view"},{"type":"function","name":"name","inputs":[],"outputs":[{"name":"","type":"string","internalType":"string"}],"stateMutability":"view"},{"type":"function","name":"owner","inputs":[],"outputs":[{"name":"","type":"address","internalType":"address"}],"stateMutability":"view"},{"type":"function","name":"renounceOwnership","inputs":[],"outputs":[],"stateMutability":"nonpayable"},{"type":"function","name":"setMinter","inputs":[{"name":"_newMinter","type":"address","internalType":"address"}],"outputs":[],"stateMutability":"nonpayable"},{"type":"function","name":"symbol","inputs":[],"outputs":[{"name":"","type":"string","internalType":"string"}],"stateMutability":"view"},{"type":"function","name":"totalSupply","inputs":[],"outputs":[{"name":"","type":"uint256","internalType":"uint256"}],"stateMutability":"view"},{"type":"function","name":"transfer","inputs":[{"name":"to","type":"address","internalType":"address"},{"name":"value","type":"uint256","internalType":"uint256"}],"outputs":[{"name":"","type":"bool","internalType":"bool"}],"stateMutability":"nonpayable"},{"type":"function","name":"transferFrom","inputs":[{"name":"from","type":"address","internalType":"address"},{"name":"to","type":"address","internalType":"address"},{"name":"value","type":"uint256","internalType":"uint256"}],"outputs":[{"name":"","type":"bool","internalType":"bool"}],"stateMutability":"nonpayable"},{"type":"function","name":"transferOwnership","inputs":[{"name":"newOwner","type":"address","internalType":"address"}],"outputs":[],"stateMutability":"nonpayable"},{"type":"event","name":"Approval","inputs":[{"name":"owner","type":"address","indexed":true,"internalType":"address"},{"name":"spender","type":"address","indexed":true,"internalType":"address"},{"name":"value","type":"uint256","indexed":false,"internalType":"uint256"}],"anonymous":false},{"type":"event","name":"OwnershipTransferred","inputs":[{"name":"previousOwner","type":"address","indexed":true,"internalType":"address"},{"name":"newOwner","type":"address","indexed":true,"internalType":"address"}],"anonymous":false},{"type":"event","name":"Transfer","inputs":[{"name":"from","type":"address","indexed":true,"internalType":"address"},{"name":"to","type":"address","indexed":true,"internalType":"address"},{"name":"value","type":"uint256","indexed":false,"internalType":"uint256"}],"anonymous":false},{"type":"error","name":"ERC20InsufficientAllowance","inputs":[{"name":"spender","type":"address","internalType":"address"},{"name":"allowance","type":"uint256","internalType":"uint256"},{"name":"needed","type":"uint256","internalType":"uint256"}]},{"type":"error","name":"ERC20InsufficientBalance","inputs":[{"name":"sender","type":"address","internalType":"address"},{"name":"balance","type":"uint256","internalType":"uint256"},{"name":"needed","type":"uint256","internalType":"uint256"}]},{"type":"error","name":"ERC20InvalidApprover","inputs":[{"name":"approver","type":"address","internalType":"address"}]},{"type":"error","name":"ERC20InvalidReceiver","inputs":[{"name":"receiver","type":"address","internalType":"address"}]},{"type":"error","name":"ERC20InvalidSender","inputs":[{"name":"sender","type":"address","internalType":"address"}]},{"type":"error","name":"ERC20InvalidSpender","inputs":[{"name":"spender","type":"address","internalType":"address"}]},{"type":"error","name":"OwnableInvalidOwner","inputs":[{"name":"owner","type":"address","internalType":"address"}]},{"type":"error","name":"OwnableUnauthorizedAccount","inputs":[{"name":"account","type":"address","internalType":"address"}]}],"bytecode":{"object":"0x608060405234801561000f575f5ffd5b506040516119ec3803806119ec833981810160405281019061003191906102a7565b806040518060400160405280600581526020017f546f6b656e0000000000000000000000000000000000000000000000000000008152506040518060400160405280600381526020017f544b4e000000000000000000000000000000000000000000000000000000000081525081600390816100ad919061050f565b5080600490816100bd919061050f565b5050505f73ffffffffffffffffffffffffffffffffffffffff168173ffffffffffffffffffffffffffffffffffffffff1603610130575f6040517f1e4fbdf700000000000000000000000000000000000000000000000000000000815260040161012791906105ed565b60405180910390fd5b61013f8161018660201b60201c565b508060065f6101000a81548173ffffffffffffffffffffffffffffffffffffffff021916908373ffffffffffffffffffffffffffffffffffffffff16021790555050610606565b5f60055f9054906101000a900473ffffffffffffffffffffffffffffffffffffffff1690508160055f6101000a81548173ffffffffffffffffffffffffffffffffffffffff021916908373ffffffffffffffffffffffffffffffffffffffff1602179055508173ffffffffffffffffffffffffffffffffffffffff168173ffffffffffffffffffffffffffffffffffffffff167f8be0079c531659141344cd1fd0a4f28419497f9722a3daafe3b4186f6b6457e060405160405180910390a35050565b5f5ffd5b5f73ffffffffffffffffffffffffffffffffffffffff82169050919050565b5f6102768261024d565b9050919050565b6102868161026c565b8114610290575f5ffd5b50565b5f815190506102a18161027d565b92915050565b5f602082840312156102bc576102bb610249565b5b5f6102c984828501610293565b91505092915050565b5f81519050919050565b7f4e487b71000000000000000000000000000000000000000000000000000000005f52604160045260245ffd5b7f4e487b71000000000000000000000000000000000000000000000000000000005f52602260045260245ffd5b5f600282049050600182168061034d57607f821691505b6020821081036103605761035f610309565b5b50919050565b5f819050815f5260205f209050919050565b5f6020601f8301049050919050565b5f82821b905092915050565b5f600883026103c27fffffffffffffffffffffffffffffffffffffffffffffffffffffffffffffffff82610387565b6103cc8683610387565b95508019841693508086168417925050509392505050565b5f819050919050565b5f819050919050565b5f61041061040b610406846103e4565b6103ed565b6103e4565b9050919050565b5f819050919050565b610429836103f6565b61043d61043582610417565b848454610393565b825550505050565b5f5f905090565b610454610445565b61045f818484610420565b505050565b5b81811015610482576104775f8261044c565b600181019050610465565b5050565b601f8211156104c75761049881610366565b6104a184610378565b810160208510156104b0578190505b6104c46104bc85610378565b830182610464565b50505b505050565b5f82821c905092915050565b5f6104e75f19846008026104cc565b1980831691505092915050565b5f6104ff83836104d8565b9150826002028217905092915050565b610518826102d2565b67ffffffffffffffff811115610531576105306102dc565b5b61053b8254610336565b610546828285610486565b5f60209050601f831160018114610577575f8415610565578287015190505b61056f85826104f4565b8655506105d6565b601f19841661058586610366565b5f5b828110156105ac57848901518255600182019150602085019450602081019050610587565b868310156105c957848901516105c5601f8916826104d8565b8355505b6001600288020188555050505b505050505050565b6105e78161026c565b82525050565b5f6020820190506106005f8301846105de565b92915050565b6113d9806106135f395ff3fe608060405234801561000f575f5ffd5b50600436106100fe575f3560e01c8063715018a611610095578063a9059cbb11610064578063a9059cbb1461028a578063dd62ed3e146102ba578063f2fde38b146102ea578063fca3b5aa14610306576100fe565b8063715018a6146102265780638da5cb5b14610230578063902d55a51461024e57806395d89b411461026c576100fe565b806323b872dd116100d157806323b872dd1461018c578063313ce567146101bc57806340c10f19146101da57806370a08231146101f6576100fe565b806306fdde03146101025780630754617214610120578063095ea7b31461013e57806318160ddd1461016e575b5f5ffd5b61010a610322565b6040516101179190610f82565b60405180910390f35b6101286103b2565b6040516101359190610fe1565b60405180910390f35b6101586004803603810190610153919061105b565b6103d7565b60405161016591906110b3565b60405180910390f35b6101766103f9565b60405161018391906110db565b60405180910390f35b6101a660048036038101906101a191906110f4565b610402565b6040516101b391906110b3565b60405180910390f35b6101c4610430565b6040516101d1919061115f565b60405180910390f35b6101f460048036038101906101ef919061105b565b610438565b005b610210600480360381019061020b9190611178565b610534565b60405161021d91906110db565b60405180910390f35b61022e610579565b005b61023861058c565b6040516102459190610fe1565b60405180910390f35b6102566105b4565b60405161026391906110db565b60405180910390f35b6102746105c2565b6040516102819190610f82565b60405180910390f35b6102a4600480360381019061029f919061105b565b610652565b6040516102b191906110b3565b60405180910390f35b6102d460048036038101906102cf91906111a3565b610674565b6040516102e191906110db565b60405180910390f35b61030460048036038101906102ff9190611178565b6106f6565b005b610320600480360381019061031b9190611178565b61077a565b005b6060600380546103319061120e565b80601f016020809104026020016040519081016040528092919081815260200182805461035d9061120e565b80156103a85780601f1061037f576101008083540402835291602001916103a8565b820191905f5260205f20905b81548152906001019060200180831161038b57829003601f168201915b5050505050905090565b60065f9054906101000a900473ffffffffffffffffffffffffffffffffffffffff1681565b5f5f6103e16107c5565b90506103ee8185856107cc565b600191505092915050565b5f600254905090565b5f5f61040c6107c5565b90506104198582856107de565b610424858585610871565b60019150509392505050565b5f6012905090565b60065f9054906101000a900473ffffffffffffffffffffffffffffffffffffffff1673ffffffffffffffffffffffffffffffffffffffff163373ffffffffffffffffffffffffffffffffffffffff16146104c7576040517f08c379a00000000000000000000000000000000000000000000000000000000081526004016104be90611288565b60405180910390fd5b69d3c21bcecceda1000000816104db6103f9565b6104e591906112d3565b1115610526576040517f08c379a000000000000000000000000000000000000000000000000000000000815260040161051d90611350565b60405180910390fd5b6105308282610961565b5050565b5f5f5f8373ffffffffffffffffffffffffffffffffffffffff1673ffffffffffffffffffffffffffffffffffffffff1681526020019081526020015f20549050919050565b6105816109e0565b61058a5f610a67565b565b5f60055f9054906101000a900473ffffffffffffffffffffffffffffffffffffffff16905090565b69d3c21bcecceda100000081565b6060600480546105d19061120e565b80601f01602080910402602001604051908101604052809291908181526020018280546105fd9061120e565b80156106485780601f1061061f57610100808354040283529160200191610648565b820191905f5260205f20905b81548152906001019060200180831161062b57829003601f168201915b5050505050905090565b5f5f61065c6107c5565b9050610669818585610871565b600191505092915050565b5f60015f8473ffffffffffffffffffffffffffffffffffffffff1673ffffffffffffffffffffffffffffffffffffffff1681526020019081526020015f205f8373ffffffffffffffffffffffffffffffffffffffff1673ffffffffffffffffffffffffffffffffffffffff1681526020019081526020015f2054905092915050565b6106fe6109e0565b5f73ffffffffffffffffffffffffffffffffffffffff168173ffffffffffffffffffffffffffffffffffffffff160361076e575f6040517f1e4fbdf70000000000000000000000000000000000000000000000000000000081526004016107659190610fe1565b60405180910390fd5b61077781610a67565b50565b6107826109e0565b8060065f6101000a81548173ffffffffffffffffffffffffffffffffffffffff021916908373ffffffffffffffffffffffffffffffffffffffff16021790555050565b5f33905090565b6107d98383836001610b2a565b505050565b5f6107e98484610674565b90507fffffffffffffffffffffffffffffffffffffffffffffffffffffffffffffffff81101561086b578181101561085c578281836040517ffb8f41b20000000000000000000000000000000000000000000000000000000081526004016108539392919061136e565b60405180910390fd5b61086a84848484035f610b2a565b5b50505050565b5f73ffffffffffffffffffffffffffffffffffffffff168373ffffffffffffffffffffffffffffffffffffffff16036108e1575f6040517f96c6fd1e0000000000000000000000000000000000000000000000000000000081526004016108d89190610fe1565b60405180910390fd5b5f73ffffffffffffffffffffffffffffffffffffffff168273ffffffffffffffffffffffffffffffffffffffff1603610951575f6040517fec442f050000000000000000000000000000000000000000000000000000000081526004016109489190610fe1565b60405180910390fd5b61095c838383610cf9565b505050565b5f73ffffffffffffffffffffffffffffffffffffffff168273ffffffffffffffffffffffffffffffffffffffff16036109d1575f6040517fec442f050000000000000000000000000000000000000000000000000000000081526004016109c89190610fe1565b60405180910390fd5b6109dc5f8383610cf9565b5050565b6109e86107c5565b73ffffffffffffffffffffffffffffffffffffffff16610a0661058c565b73ffffffffffffffffffffffffffffffffffffffff1614610a6557610a296107c5565b6040517f118cdaa7000000000000000000000000000000000000000000000000000000008152600401610a5c9190610fe1565b60405180910390fd5b565b5f60055f9054906101000a900473ffffffffffffffffffffffffffffffffffffffff1690508160055f6101000a81548173ffffffffffffffffffffffffffffffffffffffff021916908373ffffffffffffffffffffffffffffffffffffffff1602179055508173ffffffffffffffffffffffffffffffffffffffff168173ffffffffffffffffffffffffffffffffffffffff167f8be0079c531659141344cd1fd0a4f28419497f9722a3daafe3b4186f6b6457e060405160405180910390a35050565b5f73ffffffffffffffffffffffffffffffffffffffff168473ffffffffffffffffffffffffffffffffffffffff1603610b9a575f6040517fe602df05000000000000000000000000000000000000000000000000000000008152600401610b919190610fe1565b60405180910390fd5b5f73ffffffffffffffffffffffffffffffffffffffff168373ffffffffffffffffffffffffffffffffffffffff1603610c0a575f6040517f94280d62000000000000000000000000000000000000000000000000000000008152600401610c019190610fe1565b60405180910390fd5b8160015f8673ffffffffffffffffffffffffffffffffffffffff1673ffffffffffffffffffffffffffffffffffffffff1681526020019081526020015f205f8573ffffffffffffffffffffffffffffffffffffffff1673ffffffffffffffffffffffffffffffffffffffff1681526020019081526020015f20819055508015610cf3578273ffffffffffffffffffffffffffffffffffffffff168473ffffffffffffffffffffffffffffffffffffffff167f8c5be1e5ebec7d5bd14f71427d1e84f3dd0314c0f7b2291e5b200ac8c7c3b92584604051610cea91906110db565b60405180910390a35b50505050565b5f73ffffffffffffffffffffffffffffffffffffffff168373ffffffffffffffffffffffffffffffffffffffff1603610d49578060025f828254610d3d91906112d3565b92505081905550610e17565b5f5f5f8573ffffffffffffffffffffffffffffffffffffffff1673ffffffffffffffffffffffffffffffffffffffff1681526020019081526020015f2054905081811015610dd2578381836040517fe450d38c000000000000000000000000000000000000000000000000000000008152600401610dc99392919061136e565b60405180910390fd5b8181035f5f8673ffffffffffffffffffffffffffffffffffffffff1673ffffffffffffffffffffffffffffffffffffffff1681526020019081526020015f2081905550505b5f73ffffffffffffffffffffffffffffffffffffffff168273ffffffffffffffffffffffffffffffffffffffff1603610e5e578060025f8282540392505081905550610ea8565b805f5f8473ffffffffffffffffffffffffffffffffffffffff1673ffffffffffffffffffffffffffffffffffffffff1681526020019081526020015f205f82825401925050819055505b8173ffffffffffffffffffffffffffffffffffffffff168373ffffffffffffffffffffffffffffffffffffffff167fddf252ad1be2c89b69c2b068fc378daa952ba7f163c4a11628f55a4df523b3ef83604051610f0591906110db565b60405180910390a3505050565b5f81519050919050565b5f82825260208201905092915050565b8281835e5f83830152505050565b5f601f19601f8301169050919050565b5f610f5482610f12565b610f5e8185610f1c565b9350610f6e818560208601610f2c565b610f7781610f3a565b840191505092915050565b5f6020820190508181035f830152610f9a8184610f4a565b905092915050565b5f73ffffffffffffffffffffffffffffffffffffffff82169050919050565b5f610fcb82610fa2565b9050919050565b610fdb81610fc1565b82525050565b5f602082019050610ff45f830184610fd2565b92915050565b5f5ffd5b61100781610fc1565b8114611011575f5ffd5b50565b5f8135905061102281610ffe565b92915050565b5f819050919050565b61103a81611028565b8114611044575f5ffd5b50565b5f8135905061105581611031565b92915050565b5f5f6040838503121561107157611070610ffa565b5b5f61107e85828601611014565b925050602061108f85828601611047565b9150509250929050565b5f8115159050919050565b6110ad81611099565b82525050565b5f6020820190506110c65f8301846110a4565b92915050565b6110d581611028565b82525050565b5f6020820190506110ee5f8301846110cc565b92915050565b5f5f5f6060848603121561110b5761110a610ffa565b5b5f61111886828701611014565b935050602061112986828701611014565b925050604061113a86828701611047565b9150509250925092565b5f60ff82169050919050565b61115981611144565b82525050565b5f6020820190506111725f830184611150565b92915050565b5f6020828403121561118d5761118c610ffa565b5b5f61119a84828501611014565b91505092915050565b5f5f604083850312156111b9576111b8610ffa565b5b5f6111c685828601611014565b92505060206111d785828601611014565b9150509250929050565b7f4e487b71000000000000000000000000000000000000000000000000000000005f52602260045260245ffd5b5f600282049050600182168061122557607f821691505b602082108103611238576112376111e1565b5b50919050565b7f4f6e6c79206d696e7465722063616e206d696e740000000000000000000000005f82015250565b5f611272601483610f1c565b915061127d8261123e565b602082019050919050565b5f6020820190508181035f83015261129f81611266565b9050919050565b7f4e487b71000000000000000000000000000000000000000000000000000000005f52601160045260245ffd5b5f6112dd82611028565b91506112e883611028565b9250828201905080821115611300576112ff6112a6565b5b92915050565b7f4578636565647320746f74616c20737570706c790000000000000000000000005f82015250565b5f61133a601483610f1c565b915061134582611306565b602082019050919050565b5f6020820190508181035f8301526113678161132e565b9050919050565b5f6060820190506113815f830186610fd2565b61138e60208301856110cc565b61139b60408301846110cc565b94935050505056fea2646970667358221220adde5abbfdb28b2127dfb20f2ef8fb2bbaf6e52eaea4149f76a479b7f49f6a5664736f6c634300081e0033","linkReferences":{}},"methodIdentifiers":{"TOTAL_SUPPLY()":"902d55a5","allowance(address,address)":"dd62ed3e","approve(address,uint256)":"095ea7b3","balanceOf(address)":"70a08231","decimals()":"313ce567","mint(address,uint256)":"40c10f19","minter()":"07546172","name()":"06fdde03","owner()":"8da5cb5b","renounceOwnership()":"715018a6","setMinter(address)":"fca3b5aa","symbol()":"95d89b41","totalSupply()":"18160ddd","transfer(address,uint256)":"a9059cbb","transferFrom(address,address,uint256)":"23b872dd","transferOwnership(address)":"f2fde38b"},"id":1}