{"abi":[{"type":"constructor","inputs":[{"name":"_tokenAddress","type":"address","internalType":"address"}],"stateMutability":"nonpayable"},{"type":"function","name":"COOLDOWN_TIME","inputs":[],"outputs":[{"name":"","type":"uint256","internalType":"uint256"}],"stateMutability":"view"},{"type":"function","name":"FAUCET_AMOUNT","inputs":[],"outputs":[{"name":"","type":"uint256","internalType":"uint256"}],"stateMutability":"view"},{"type":"function","name":"MAX_CLAIM_AMOUNT","inputs":[],"outputs":[{"name":"","type":"uint256","internalType":"uint256"}],"stateMutability":"view"},{"type":"function","name":"admin","inputs":[],"outputs":[{"name":"","type":"address","internalType":"address"}],"stateMutability":"view"},{"type":"function","name":"canClaim","inputs":[{"name":"user","type":"address","internalType":"address"}],"outputs":[{"name":"","type":"bool","internalType":"bool"}],"stateMutability":"view"},{"type":"function","name":"isPaused","inputs":[],"outputs":[{"name":"","type":"bool","internalType":"bool"}],"stateMutability":"view"},{"type":"function","name":"lastClaimedAt","inputs":[{"name":"","type":"address","internalType":"address"}],"outputs":[{"name":"","type":"uint256","internalType":"uint256"}],"stateMutability":"view"},{"type":"function","name":"paused","inputs":[],"outputs":[{"name":"","type":"bool","internalType":"bool"}],"stateMutability":"view"},{"type":"function","name":"remainingAllowance","inputs":[{"name":"user","type":"address","internalType":"address"}],"outputs":[{"name":"","type":"uint256","internalType":"uint256"}],"stateMutability":"view"},{"type":"function","name":"requestTokens","inputs":[],"outputs":[],"stateMutability":"nonpayable"},{"type":"function","name":"setPaused","inputs":[{"name":"_paused","type":"bool","internalType":"bool"}],"outputs":[],"stateMutability":"nonpayable"},{"type":"function","name":"token","inputs":[],"outputs":[{"name":"","type":"address","internalType":"contract IToken"}],"stateMutability":"view"},{"type":"function","name":"totalClaimed","inputs":[{"name":"","type":"address","internalType":"address"}],"outputs":[{"name":"","type":"uint256","internalType":"uint256"}],"stateMutability":"view"},{"type":"event","name":"FaucetPaused","inputs":[{"name":"paused","type":"bool","indexed":false,"internalType":"bool"}],"anonymous":false},{"type":"event","name":"TokensClaimed","inputs":[{"name":"to","type":"address","indexed":true,"internalType":"address"},{"name":"value","type":"uint256","indexed":false,"internalType":"uint256"},{"name":"timestamp","type":"uint256","indexed":false,"internalType":"uint256"}],"anonymous":false}],"bytecode":{"object":"0x608060405234801561000f575f5ffd5b50604051610f60380380610f608339818101604052810190610031919061019c565b5f73ffffffffffffffffffffffffffffffffffffffff168173ffffffffffffffffffffffffffffffffffffffff160361009f576040517f08c379a000000000000000000000000000000000000000000000000000000000815260040161009690610221565b60405180910390fd5b335f5f6101000a81548173ffffffffffffffffffffffffffffffffffffffff021916908373ffffffffffffffffffffffffffffffffffffffff1602179055505f600160146101000a81548160ff0219169083151502179055508060015f6101000a81548173ffffffffffffffffffffffffffffffffffffffff021916908373ffffffffffffffffffffffffffffffffffffffff1602179055505061023f565b5f5ffd5b5f73ffffffffffffffffffffffffffffffffffffffff82169050919050565b5f61016b82610142565b9050919050565b61017b81610161565b8114610185575f5ffd5b50565b5f8151905061019681610172565b92915050565b5f602082840312156101b1576101b061013e565b5b5f6101be84828501610188565b91505092915050565b5f82825260208201905092915050565b7f496e76616c696420746f6b656e206164647265737300000000000000000000005f82015250565b5f61020b6015836101c7565b9150610216826101d7565b602082019050919050565b5f6020820190508181035f830152610238816101ff565b9050919050565b610d148061024c5f395ff3fe608060405234801561000f575f5ffd5b50600436106100cd575f3560e01c8063b187bd261161008a578063ef5d9ae811610064578063ef5d9ae8146101ed578063f357df6d1461021d578063f851a4401461024d578063fc0c546a1461026b576100cd565b8063b187bd2614610181578063bf3506c11461019f578063e362b4f7146101cf576100cd565b806316c38b3c146100d157806326a40c99146100ed578063359cf2b71461011d5780635c975abb1461012757806376697640146101455780637d26324514610163575b5f5ffd5b6100eb60048036038101906100e691906108a8565b610289565b005b6101076004803603810190610102919061092d565b61036b565b6040516101149190610970565b60405180910390f35b610125610380565b005b61012f610682565b60405161013c9190610998565b60405180910390f35b61014d610695565b60405161015a9190610970565b60405180910390f35b61016b6106a1565b6040516101789190610970565b60405180910390f35b6101896106a8565b6040516101969190610998565b60405180910390f35b6101b960048036038101906101b4919061092d565b6106be565b6040516101c69190610998565b60405180910390f35b6101d76107aa565b6040516101e49190610970565b60405180910390f35b6102076004803603810190610202919061092d565b6107b7565b6040516102149190610970565b60405180910390f35b6102376004803603810190610232919061092d565b6107cc565b6040516102449190610970565b60405180910390f35b610255610826565b60405161026291906109c0565b60405180910390f35b61027361084a565b6040516102809190610a34565b60405180910390f35b5f5f9054906101000a900473ffffffffffffffffffffffffffffffffffffffff1673ffffffffffffffffffffffffffffffffffffffff163373ffffffffffffffffffffffffffffffffffffffff1614610317576040517f08c379a000000000000000000000000000000000000000000000000000000000815260040161030e90610aa7565b60405180910390fd5b80600160146101000a81548160ff0219169083151502179055507f50cfd8deb0b293676ae69355a9eed053a00f81d3bd6a0ae4dc082629e6476f7f816040516103609190610998565b60405180910390a150565b6002602052805f5260405f205f915090505481565b600160149054906101000a900460ff16156103d0576040517f08c379a00000000000000000000000000000000000000000000000000000000081526004016103c790610b0f565b60405180910390fd5b6201518060025f3373ffffffffffffffffffffffffffffffffffffffff1673ffffffffffffffffffffffffffffffffffffffff1681526020019081526020015f205461041c9190610b5a565b42101561045e576040517f08c379a000000000000000000000000000000000000000000000000000000000815260040161045590610bd7565b60405180910390fd5b68056bc75e2d63100000670de0b6b3a764000060035f3373ffffffffffffffffffffffffffffffffffffffff1673ffffffffffffffffffffffffffffffffffffffff1681526020019081526020015f20546104b99190610b5a565b11156104fa576040517f08c379a00000000000000000000000000000000000000000000000000000000081526004016104f190610c3f565b60405180910390fd5b4260025f3373ffffffffffffffffffffffffffffffffffffffff1673ffffffffffffffffffffffffffffffffffffffff1681526020019081526020015f2081905550670de0b6b3a764000060035f3373ffffffffffffffffffffffffffffffffffffffff1673ffffffffffffffffffffffffffffffffffffffff1681526020019081526020015f205f8282546105909190610b5a565b9250508190555060015f9054906101000a900473ffffffffffffffffffffffffffffffffffffffff1673ffffffffffffffffffffffffffffffffffffffff166340c10f1933670de0b6b3a76400006040518363ffffffff1660e01b81526004016105fb929190610c5d565b5f604051808303815f87803b158015610612575f5ffd5b505af1158015610624573d5f5f3e3d5ffd5b505050503373ffffffffffffffffffffffffffffffffffffffff167f9923b4306c6c030f2bdfbf156517d5983b87e15b96176da122cd4f2effa4ba7b670de0b6b3a764000042604051610678929190610c84565b60405180910390a2565b600160149054906101000a900460ff1681565b670de0b6b3a764000081565b6201518081565b5f600160149054906101000a900460ff16905090565b5f600160149054906101000a900460ff16156106dc575f90506107a5565b6201518060025f8473ffffffffffffffffffffffffffffffffffffffff1673ffffffffffffffffffffffffffffffffffffffff1681526020019081526020015f20546107289190610b5a565b421015610737575f90506107a5565b68056bc75e2d63100000670de0b6b3a764000060035f8573ffffffffffffffffffffffffffffffffffffffff1673ffffffffffffffffffffffffffffffffffffffff1681526020019081526020015f20546107929190610b5a565b11156107a0575f90506107a5565b600190505b919050565b68056bc75e2d6310000081565b6003602052805f5260405f205f915090505481565b5f60035f8373ffffffffffffffffffffffffffffffffffffffff1673ffffffffffffffffffffffffffffffffffffffff1681526020019081526020015f205468056bc75e2d6310000061081f9190610cab565b9050919050565b5f5f9054906101000a900473ffffffffffffffffffffffffffffffffffffffff1681565b60015f9054906101000a900473ffffffffffffffffffffffffffffffffffffffff1681565b5f5ffd5b5f8115159050919050565b61088781610873565b8114610891575f5ffd5b50565b5f813590506108a28161087e565b92915050565b5f602082840312156108bd576108bc61086f565b5b5f6108ca84828501610894565b91505092915050565b5f73ffffffffffffffffffffffffffffffffffffffff82169050919050565b5f6108fc826108d3565b9050919050565b61090c816108f2565b8114610916575f5ffd5b50565b5f8135905061092781610903565b92915050565b5f602082840312156109425761094161086f565b5b5f61094f84828501610919565b91505092915050565b5f819050919050565b61096a81610958565b82525050565b5f6020820190506109835f830184610961565b92915050565b61099281610873565b82525050565b5f6020820190506109ab5f830184610989565b92915050565b6109ba816108f2565b82525050565b5f6020820190506109d35f8301846109b1565b92915050565b5f819050919050565b5f6109fc6109f76109f2846108d3565b6109d9565b6108d3565b9050919050565b5f610a0d826109e2565b9050919050565b5f610a1e82610a03565b9050919050565b610a2e81610a14565b82525050565b5f602082019050610a475f830184610a25565b92915050565b5f82825260208201905092915050565b7f4f6e6c7920617574686172697a65642062792041646d696e00000000000000005f82015250565b5f610a91601883610a4d565b9150610a9c82610a5d565b602082019050919050565b5f6020820190508181035f830152610abe81610a85565b9050919050565b7f46617563657420697320706175736564000000000000000000000000000000005f82015250565b5f610af9601083610a4d565b9150610b0482610ac5565b602082019050919050565b5f6020820190508181035f830152610b2681610aed565b9050919050565b7f4e487b71000000000000000000000000000000000000000000000000000000005f52601160045260245ffd5b5f610b6482610958565b9150610b6f83610958565b9250828201905080821115610b8757610b86610b2d565b5b92915050565b7f436f6f6c646f776e20706572696f64206e6f7420656c617073656400000000005f82015250565b5f610bc1601b83610a4d565b9150610bcc82610b8d565b602082019050919050565b5f6020820190508181035f830152610bee81610bb5565b9050919050565b7f4c69666574696d6520636c61696d206c696d69742072656163686564000000005f82015250565b5f610c29601c83610a4d565b9150610c3482610bf5565b602082019050919050565b5f6020820190508181035f830152610c5681610c1d565b9050919050565b5f604082019050610c705f8301856109b1565b610c7d6020830184610961565b9392505050565b5f604082019050610c975f830185610961565b610ca46020830184610961565b9392505050565b5f610cb582610958565b9150610cc083610958565b9250828203905081811115610cd857610cd7610b2d565b5b9291505056fea264697066735822122023303a49088f81bd7f632330ae4e1868fc430d0621cb77a06873605e963ede2d64736f6c634300081e0033","linkReferences":{}},"methodIdentifiers":{"COOLDOWN_TIME()":"7d263245","FAUCET_AMOUNT()":"76697640","MAX_CLAIM_AMOUNT()":"e362b4f7","admin()":"f851a440","canClaim(address)":"bf3506c1","isPaused()":"b187bd26","lastClaimedAt(address)":"26a40c99","paused()":"5c975abb","remainingAllowance(address)":"f357df6d","requestTokens()":"359cf2b7","setPaused(bool)":"16c38b3c","token()":"fc0c546a","totalClaimed(address)":"ef5d9ae8"},"id":2}